{
  "address": "0x6E4e6A254e754FeEaf9dC8984053F649B528685b",
  "contractName": "DateTimeContract",
  "abi": [
    {
      "inputs": [],
      "name": "DOW_FRI",
      "outputs": [
        {
          "internalType": "uint256",
          "name": "",
          "type": "uint256"
        }
      ],
      "stateMutability": "view",
      "type": "function",
      "constant": true
    },
    {
      "inputs": [],
      "name": "DOW_MON",
      "outputs": [
        {
          "internalType": "uint256",
          "name": "",
          "type": "uint256"
        }
      ],
      "stateMutability": "view",
      "type": "function",
      "constant": true
    },
    {
      "inputs": [],
      "name": "DOW_SAT",
      "outputs": [
        {
          "internalType": "uint256",
          "name": "",
          "type": "uint256"
        }
      ],
      "stateMutability": "view",
      "type": "function",
      "constant": true
    },
    {
      "inputs": [],
      "name": "DOW_SUN",
      "outputs": [
        {
          "internalType": "uint256",
          "name": "",
          "type": "uint256"
        }
      ],
      "stateMutability": "view",
      "type": "function",
      "constant": true
    },
    {
      "inputs": [],
      "name": "DOW_THU",
      "outputs": [
        {
          "internalType": "uint256",
          "name": "",
          "type": "uint256"
        }
      ],
      "stateMutability": "view",
      "type": "function",
      "constant": true
    },
    {
      "inputs": [],
      "name": "DOW_TUE",
      "outputs": [
        {
          "internalType": "uint256",
          "name": "",
          "type": "uint256"
        }
      ],
      "stateMutability": "view",
      "type": "function",
      "constant": true
    },
    {
      "inputs": [],
      "name": "DOW_WED",
      "outputs": [
        {
          "internalType": "uint256",
          "name": "",
          "type": "uint256"
        }
      ],
      "stateMutability": "view",
      "type": "function",
      "constant": true
    },
    {
      "inputs": [],
      "name": "OFFSET19700101",
      "outputs": [
        {
          "internalType": "int256",
          "name": "",
          "type": "int256"
        }
      ],
      "stateMutability": "view",
      "type": "function",
      "constant": true
    },
    {
      "inputs": [],
      "name": "SECONDS_PER_DAY",
      "outputs": [
        {
          "internalType": "uint256",
          "name": "",
          "type": "uint256"
        }
      ],
      "stateMutability": "view",
      "type": "function",
      "constant": true
    },
    {
      "inputs": [],
      "name": "SECONDS_PER_HOUR",
      "outputs": [
        {
          "internalType": "uint256",
          "name": "",
          "type": "uint256"
        }
      ],
      "stateMutability": "view",
      "type": "function",
      "constant": true
    },
    {
      "inputs": [],
      "name": "SECONDS_PER_MINUTE",
      "outputs": [
        {
          "internalType": "uint256",
          "name": "",
          "type": "uint256"
        }
      ],
      "stateMutability": "view",
      "type": "function",
      "constant": true
    },
    {
      "inputs": [],
      "name": "_now",
      "outputs": [
        {
          "internalType": "uint256",
          "name": "timestamp",
          "type": "uint256"
        }
      ],
      "stateMutability": "view",
      "type": "function",
      "constant": true
    },
    {
      "inputs": [],
      "name": "_nowDateTime",
      "outputs": [
        {
          "internalType": "uint256",
          "name": "year",
          "type": "uint256"
        },
        {
          "internalType": "uint256",
          "name": "month",
          "type": "uint256"
        },
        {
          "internalType": "uint256",
          "name": "day",
          "type": "uint256"
        },
        {
          "internalType": "uint256",
          "name": "hour",
          "type": "uint256"
        },
        {
          "internalType": "uint256",
          "name": "minute",
          "type": "uint256"
        },
        {
          "internalType": "uint256",
          "name": "second",
          "type": "uint256"
        }
      ],
      "stateMutability": "view",
      "type": "function",
      "constant": true
    },
    {
      "inputs": [
        {
          "internalType": "uint256",
          "name": "year",
          "type": "uint256"
        },
        {
          "internalType": "uint256",
          "name": "month",
          "type": "uint256"
        },
        {
          "internalType": "uint256",
          "name": "day",
          "type": "uint256"
        }
      ],
      "name": "_daysFromDate",
      "outputs": [
        {
          "internalType": "uint256",
          "name": "_days",
          "type": "uint256"
        }
      ],
      "stateMutability": "pure",
      "type": "function",
      "constant": true
    },
    {
      "inputs": [
        {
          "internalType": "uint256",
          "name": "_days",
          "type": "uint256"
        }
      ],
      "name": "_daysToDate",
      "outputs": [
        {
          "internalType": "uint256",
          "name": "year",
          "type": "uint256"
        },
        {
          "internalType": "uint256",
          "name": "month",
          "type": "uint256"
        },
        {
          "internalType": "uint256",
          "name": "day",
          "type": "uint256"
        }
      ],
      "stateMutability": "pure",
      "type": "function",
      "constant": true
    },
    {
      "inputs": [
        {
          "internalType": "uint256",
          "name": "year",
          "type": "uint256"
        },
        {
          "internalType": "uint256",
          "name": "month",
          "type": "uint256"
        },
        {
          "internalType": "uint256",
          "name": "day",
          "type": "uint256"
        }
      ],
      "name": "timestampFromDate",
      "outputs": [
        {
          "internalType": "uint256",
          "name": "timestamp",
          "type": "uint256"
        }
      ],
      "stateMutability": "pure",
      "type": "function",
      "constant": true
    },
    {
      "inputs": [
        {
          "internalType": "uint256",
          "name": "year",
          "type": "uint256"
        },
        {
          "internalType": "uint256",
          "name": "month",
          "type": "uint256"
        },
        {
          "internalType": "uint256",
          "name": "day",
          "type": "uint256"
        },
        {
          "internalType": "uint256",
          "name": "hour",
          "type": "uint256"
        },
        {
          "internalType": "uint256",
          "name": "minute",
          "type": "uint256"
        },
        {
          "internalType": "uint256",
          "name": "second",
          "type": "uint256"
        }
      ],
      "name": "timestampFromDateTime",
      "outputs": [
        {
          "internalType": "uint256",
          "name": "timestamp",
          "type": "uint256"
        }
      ],
      "stateMutability": "pure",
      "type": "function",
      "constant": true
    },
    {
      "inputs": [
        {
          "internalType": "uint256",
          "name": "timestamp",
          "type": "uint256"
        }
      ],
      "name": "timestampToDate",
      "outputs": [
        {
          "internalType": "uint256",
          "name": "year",
          "type": "uint256"
        },
        {
          "internalType": "uint256",
          "name": "month",
          "type": "uint256"
        },
        {
          "internalType": "uint256",
          "name": "day",
          "type": "uint256"
        }
      ],
      "stateMutability": "pure",
      "type": "function",
      "constant": true
    },
    {
      "inputs": [
        {
          "internalType": "uint256",
          "name": "timestamp",
          "type": "uint256"
        }
      ],
      "name": "timestampToDateTime",
      "outputs": [
        {
          "internalType": "uint256",
          "name": "year",
          "type": "uint256"
        },
        {
          "internalType": "uint256",
          "name": "month",
          "type": "uint256"
        },
        {
          "internalType": "uint256",
          "name": "day",
          "type": "uint256"
        },
        {
          "internalType": "uint256",
          "name": "hour",
          "type": "uint256"
        },
        {
          "internalType": "uint256",
          "name": "minute",
          "type": "uint256"
        },
        {
          "internalType": "uint256",
          "name": "second",
          "type": "uint256"
        }
      ],
      "stateMutability": "pure",
      "type": "function",
      "constant": true
    },
    {
      "inputs": [
        {
          "internalType": "uint256",
          "name": "year",
          "type": "uint256"
        },
        {
          "internalType": "uint256",
          "name": "month",
          "type": "uint256"
        },
        {
          "internalType": "uint256",
          "name": "day",
          "type": "uint256"
        }
      ],
      "name": "isValidDate",
      "outputs": [
        {
          "internalType": "bool",
          "name": "valid",
          "type": "bool"
        }
      ],
      "stateMutability": "pure",
      "type": "function",
      "constant": true
    },
    {
      "inputs": [
        {
          "internalType": "uint256",
          "name": "year",
          "type": "uint256"
        },
        {
          "internalType": "uint256",
          "name": "month",
          "type": "uint256"
        },
        {
          "internalType": "uint256",
          "name": "day",
          "type": "uint256"
        },
        {
          "internalType": "uint256",
          "name": "hour",
          "type": "uint256"
        },
        {
          "internalType": "uint256",
          "name": "minute",
          "type": "uint256"
        },
        {
          "internalType": "uint256",
          "name": "second",
          "type": "uint256"
        }
      ],
      "name": "isValidDateTime",
      "outputs": [
        {
          "internalType": "bool",
          "name": "valid",
          "type": "bool"
        }
      ],
      "stateMutability": "pure",
      "type": "function",
      "constant": true
    },
    {
      "inputs": [
        {
          "internalType": "uint256",
          "name": "timestamp",
          "type": "uint256"
        }
      ],
      "name": "isLeapYear",
      "outputs": [
        {
          "internalType": "bool",
          "name": "leapYear",
          "type": "bool"
        }
      ],
      "stateMutability": "pure",
      "type": "function",
      "constant": true
    },
    {
      "inputs": [
        {
          "internalType": "uint256",
          "name": "year",
          "type": "uint256"
        }
      ],
      "name": "_isLeapYear",
      "outputs": [
        {
          "internalType": "bool",
          "name": "leapYear",
          "type": "bool"
        }
      ],
      "stateMutability": "pure",
      "type": "function",
      "constant": true
    },
    {
      "inputs": [
        {
          "internalType": "uint256",
          "name": "timestamp",
          "type": "uint256"
        }
      ],
      "name": "isWeekDay",
      "outputs": [
        {
          "internalType": "bool",
          "name": "weekDay",
          "type": "bool"
        }
      ],
      "stateMutability": "pure",
      "type": "function",
      "constant": true
    },
    {
      "inputs": [
        {
          "internalType": "uint256",
          "name": "timestamp",
          "type": "uint256"
        }
      ],
      "name": "isWeekEnd",
      "outputs": [
        {
          "internalType": "bool",
          "name": "weekEnd",
          "type": "bool"
        }
      ],
      "stateMutability": "pure",
      "type": "function",
      "constant": true
    },
    {
      "inputs": [
        {
          "internalType": "uint256",
          "name": "timestamp",
          "type": "uint256"
        }
      ],
      "name": "getDaysInMonth",
      "outputs": [
        {
          "internalType": "uint256",
          "name": "daysInMonth",
          "type": "uint256"
        }
      ],
      "stateMutability": "pure",
      "type": "function",
      "constant": true
    },
    {
      "inputs": [
        {
          "internalType": "uint256",
          "name": "year",
          "type": "uint256"
        },
        {
          "internalType": "uint256",
          "name": "month",
          "type": "uint256"
        }
      ],
      "name": "_getDaysInMonth",
      "outputs": [
        {
          "internalType": "uint256",
          "name": "daysInMonth",
          "type": "uint256"
        }
      ],
      "stateMutability": "pure",
      "type": "function",
      "constant": true
    },
    {
      "inputs": [
        {
          "internalType": "uint256",
          "name": "timestamp",
          "type": "uint256"
        }
      ],
      "name": "getDayOfWeek",
      "outputs": [
        {
          "internalType": "uint256",
          "name": "dayOfWeek",
          "type": "uint256"
        }
      ],
      "stateMutability": "pure",
      "type": "function",
      "constant": true
    },
    {
      "inputs": [
        {
          "internalType": "uint256",
          "name": "timestamp",
          "type": "uint256"
        }
      ],
      "name": "getYear",
      "outputs": [
        {
          "internalType": "uint256",
          "name": "year",
          "type": "uint256"
        }
      ],
      "stateMutability": "pure",
      "type": "function",
      "constant": true
    },
    {
      "inputs": [
        {
          "internalType": "uint256",
          "name": "timestamp",
          "type": "uint256"
        }
      ],
      "name": "getMonth",
      "outputs": [
        {
          "internalType": "uint256",
          "name": "month",
          "type": "uint256"
        }
      ],
      "stateMutability": "pure",
      "type": "function",
      "constant": true
    },
    {
      "inputs": [
        {
          "internalType": "uint256",
          "name": "timestamp",
          "type": "uint256"
        }
      ],
      "name": "getDay",
      "outputs": [
        {
          "internalType": "uint256",
          "name": "day",
          "type": "uint256"
        }
      ],
      "stateMutability": "pure",
      "type": "function",
      "constant": true
    },
    {
      "inputs": [
        {
          "internalType": "uint256",
          "name": "timestamp",
          "type": "uint256"
        }
      ],
      "name": "getHour",
      "outputs": [
        {
          "internalType": "uint256",
          "name": "hour",
          "type": "uint256"
        }
      ],
      "stateMutability": "pure",
      "type": "function",
      "constant": true
    },
    {
      "inputs": [
        {
          "internalType": "uint256",
          "name": "timestamp",
          "type": "uint256"
        }
      ],
      "name": "getMinute",
      "outputs": [
        {
          "internalType": "uint256",
          "name": "minute",
          "type": "uint256"
        }
      ],
      "stateMutability": "pure",
      "type": "function",
      "constant": true
    },
    {
      "inputs": [
        {
          "internalType": "uint256",
          "name": "timestamp",
          "type": "uint256"
        }
      ],
      "name": "getSecond",
      "outputs": [
        {
          "internalType": "uint256",
          "name": "second",
          "type": "uint256"
        }
      ],
      "stateMutability": "pure",
      "type": "function",
      "constant": true
    },
    {
      "inputs": [
        {
          "internalType": "uint256",
          "name": "timestamp",
          "type": "uint256"
        },
        {
          "internalType": "uint256",
          "name": "_years",
          "type": "uint256"
        }
      ],
      "name": "addYears",
      "outputs": [
        {
          "internalType": "uint256",
          "name": "newTimestamp",
          "type": "uint256"
        }
      ],
      "stateMutability": "pure",
      "type": "function",
      "constant": true
    },
    {
      "inputs": [
        {
          "internalType": "uint256",
          "name": "timestamp",
          "type": "uint256"
        },
        {
          "internalType": "uint256",
          "name": "_months",
          "type": "uint256"
        }
      ],
      "name": "addMonths",
      "outputs": [
        {
          "internalType": "uint256",
          "name": "newTimestamp",
          "type": "uint256"
        }
      ],
      "stateMutability": "pure",
      "type": "function",
      "constant": true
    },
    {
      "inputs": [
        {
          "internalType": "uint256",
          "name": "timestamp",
          "type": "uint256"
        },
        {
          "internalType": "uint256",
          "name": "_days",
          "type": "uint256"
        }
      ],
      "name": "addDays",
      "outputs": [
        {
          "internalType": "uint256",
          "name": "newTimestamp",
          "type": "uint256"
        }
      ],
      "stateMutability": "pure",
      "type": "function",
      "constant": true
    },
    {
      "inputs": [
        {
          "internalType": "uint256",
          "name": "timestamp",
          "type": "uint256"
        },
        {
          "internalType": "uint256",
          "name": "_hours",
          "type": "uint256"
        }
      ],
      "name": "addHours",
      "outputs": [
        {
          "internalType": "uint256",
          "name": "newTimestamp",
          "type": "uint256"
        }
      ],
      "stateMutability": "pure",
      "type": "function",
      "constant": true
    },
    {
      "inputs": [
        {
          "internalType": "uint256",
          "name": "timestamp",
          "type": "uint256"
        },
        {
          "internalType": "uint256",
          "name": "_minutes",
          "type": "uint256"
        }
      ],
      "name": "addMinutes",
      "outputs": [
        {
          "internalType": "uint256",
          "name": "newTimestamp",
          "type": "uint256"
        }
      ],
      "stateMutability": "pure",
      "type": "function",
      "constant": true
    },
    {
      "inputs": [
        {
          "internalType": "uint256",
          "name": "timestamp",
          "type": "uint256"
        },
        {
          "internalType": "uint256",
          "name": "_seconds",
          "type": "uint256"
        }
      ],
      "name": "addSeconds",
      "outputs": [
        {
          "internalType": "uint256",
          "name": "newTimestamp",
          "type": "uint256"
        }
      ],
      "stateMutability": "pure",
      "type": "function",
      "constant": true
    },
    {
      "inputs": [
        {
          "internalType": "uint256",
          "name": "timestamp",
          "type": "uint256"
        },
        {
          "internalType": "uint256",
          "name": "_years",
          "type": "uint256"
        }
      ],
      "name": "subYears",
      "outputs": [
        {
          "internalType": "uint256",
          "name": "newTimestamp",
          "type": "uint256"
        }
      ],
      "stateMutability": "pure",
      "type": "function",
      "constant": true
    },
    {
      "inputs": [
        {
          "internalType": "uint256",
          "name": "timestamp",
          "type": "uint256"
        },
        {
          "internalType": "uint256",
          "name": "_months",
          "type": "uint256"
        }
      ],
      "name": "subMonths",
      "outputs": [
        {
          "internalType": "uint256",
          "name": "newTimestamp",
          "type": "uint256"
        }
      ],
      "stateMutability": "pure",
      "type": "function",
      "constant": true
    },
    {
      "inputs": [
        {
          "internalType": "uint256",
          "name": "timestamp",
          "type": "uint256"
        },
        {
          "internalType": "uint256",
          "name": "_days",
          "type": "uint256"
        }
      ],
      "name": "subDays",
      "outputs": [
        {
          "internalType": "uint256",
          "name": "newTimestamp",
          "type": "uint256"
        }
      ],
      "stateMutability": "pure",
      "type": "function",
      "constant": true
    },
    {
      "inputs": [
        {
          "internalType": "uint256",
          "name": "timestamp",
          "type": "uint256"
        },
        {
          "internalType": "uint256",
          "name": "_hours",
          "type": "uint256"
        }
      ],
      "name": "subHours",
      "outputs": [
        {
          "internalType": "uint256",
          "name": "newTimestamp",
          "type": "uint256"
        }
      ],
      "stateMutability": "pure",
      "type": "function",
      "constant": true
    },
    {
      "inputs": [
        {
          "internalType": "uint256",
          "name": "timestamp",
          "type": "uint256"
        },
        {
          "internalType": "uint256",
          "name": "_minutes",
          "type": "uint256"
        }
      ],
      "name": "subMinutes",
      "outputs": [
        {
          "internalType": "uint256",
          "name": "newTimestamp",
          "type": "uint256"
        }
      ],
      "stateMutability": "pure",
      "type": "function",
      "constant": true
    },
    {
      "inputs": [
        {
          "internalType": "uint256",
          "name": "timestamp",
          "type": "uint256"
        },
        {
          "internalType": "uint256",
          "name": "_seconds",
          "type": "uint256"
        }
      ],
      "name": "subSeconds",
      "outputs": [
        {
          "internalType": "uint256",
          "name": "newTimestamp",
          "type": "uint256"
        }
      ],
      "stateMutability": "pure",
      "type": "function",
      "constant": true
    },
    {
      "inputs": [
        {
          "internalType": "uint256",
          "name": "fromTimestamp",
          "type": "uint256"
        },
        {
          "internalType": "uint256",
          "name": "toTimestamp",
          "type": "uint256"
        }
      ],
      "name": "diffYears",
      "outputs": [
        {
          "internalType": "uint256",
          "name": "_years",
          "type": "uint256"
        }
      ],
      "stateMutability": "pure",
      "type": "function",
      "constant": true
    },
    {
      "inputs": [
        {
          "internalType": "uint256",
          "name": "fromTimestamp",
          "type": "uint256"
        },
        {
          "internalType": "uint256",
          "name": "toTimestamp",
          "type": "uint256"
        }
      ],
      "name": "diffMonths",
      "outputs": [
        {
          "internalType": "uint256",
          "name": "_months",
          "type": "uint256"
        }
      ],
      "stateMutability": "pure",
      "type": "function",
      "constant": true
    },
    {
      "inputs": [
        {
          "internalType": "uint256",
          "name": "fromTimestamp",
          "type": "uint256"
        },
        {
          "internalType": "uint256",
          "name": "toTimestamp",
          "type": "uint256"
        }
      ],
      "name": "diffDays",
      "outputs": [
        {
          "internalType": "uint256",
          "name": "_days",
          "type": "uint256"
        }
      ],
      "stateMutability": "pure",
      "type": "function",
      "constant": true
    },
    {
      "inputs": [
        {
          "internalType": "uint256",
          "name": "fromTimestamp",
          "type": "uint256"
        },
        {
          "internalType": "uint256",
          "name": "toTimestamp",
          "type": "uint256"
        }
      ],
      "name": "diffHours",
      "outputs": [
        {
          "internalType": "uint256",
          "name": "_hours",
          "type": "uint256"
        }
      ],
      "stateMutability": "pure",
      "type": "function",
      "constant": true
    },
    {
      "inputs": [
        {
          "internalType": "uint256",
          "name": "fromTimestamp",
          "type": "uint256"
        },
        {
          "internalType": "uint256",
          "name": "toTimestamp",
          "type": "uint256"
        }
      ],
      "name": "diffMinutes",
      "outputs": [
        {
          "internalType": "uint256",
          "name": "_minutes",
          "type": "uint256"
        }
      ],
      "stateMutability": "pure",
      "type": "function",
      "constant": true
    },
    {
      "inputs": [
        {
          "internalType": "uint256",
          "name": "fromTimestamp",
          "type": "uint256"
        },
        {
          "internalType": "uint256",
          "name": "toTimestamp",
          "type": "uint256"
        }
      ],
      "name": "diffSeconds",
      "outputs": [
        {
          "internalType": "uint256",
          "name": "_seconds",
          "type": "uint256"
        }
      ],
      "stateMutability": "pure",
      "type": "function",
      "constant": true
    }
  ],
  "bytecode": "0x608060405234801561001057600080fd5b506125b7806100206000396000f3fe608060405234801561001057600080fd5b506004361061030b5760003560e01c80638aa001fc1161019d578063c7b6fd6a116100e9578063de5101af116100a2578063f615ed541161007c578063f615ed5414610b46578063f9fd525014610b76578063fa93f88314610b94578063ff2258cb14610bc45761030b565b8063de5101af14610ac1578063e955643014610af3578063ea1c169014610b115761030b565b8063c7b6fd6a146109d7578063c7edf88c14610a07578063c9d3462214610a25578063cfbb9f3714610a55578063d2b5074314610a73578063d6582d0d14610a915761030b565b80639e524caa11610156578063ad203bd411610130578063ad203bd414610929578063b05eb08d14610959578063b3bb8cd414610989578063b8d16dbc146109a75761030b565b80639e524caa146108ab578063a324ad24146108db578063a3f144ae1461090b5761030b565b80638aa001fc146107a85780638bbf51b7146107d85780638d4a2d39146107f657806390059aed146108265780639220d4261461085857806392d663131461087b5761030b565b80634355644d1161025c5780635e05bd6d116102155780637217523c116101ef5780637217523c146106fa57806374f0314f1461072a5780637be341091461074857806389a3a00d146107785761030b565b80635e05bd6d1461066a57806362fb96971461069a57806365c72840146106ca5761030b565b80634355644d1461055c5780634371c4651461058c578063442b8c79146105bc578063444fda82146105ec5780634b3215021461061c5780634df861261461064c5761030b565b80631f4f77b2116102c95780632af123b8116102a35780632af123b81461049c5780633293d007146104cc5780633e239e1a146104fc5780633f9e0eb71461052c5761030b565b80631f4f77b21461041e57806322f8a2b81461044e578063294416741461047e5761030b565b80625015531461031057806302e98e0d1461034057806310848ddf14610370578063126702a0146103a057806314b2d6dc146103be5780631e0582e9146103ee575b600080fd5b61032a60048036038101906103259190611ed3565b610bf4565b604051610337919061204a565b60405180910390f35b61035a60048036038101906103559190611ed3565b610c08565b604051610367919061204a565b60405180910390f35b61038a60048036038101906103859190611eaa565b610c1c565b604051610397919061204a565b60405180910390f35b6103a8610c2e565b6040516103b5919061204a565b60405180910390f35b6103d860048036038101906103d39190611f0f565b610c33565b6040516103e59190612014565b60405180910390f35b61040860048036038101906104039190611f0f565b610c49565b604051610415919061204a565b60405180910390f35b61043860048036038101906104339190611f0f565b610c5f565b604051610445919061204a565b60405180910390f35b61046860048036038101906104639190611eaa565b610c75565b604051610475919061204a565b60405180910390f35b610486610c87565b604051610493919061204a565b60405180910390f35b6104b660048036038101906104b19190611ed3565b610c8c565b6040516104c3919061204a565b60405180910390f35b6104e660048036038101906104e19190611f5e565b610ca0565b6040516104f39190612014565b60405180910390f35b61051660048036038101906105119190611eaa565b610cbc565b604051610523919061204a565b60405180910390f35b61054660048036038101906105419190611ed3565b610cce565b604051610553919061204a565b60405180910390f35b61057660048036038101906105719190611ed3565b610ce2565b604051610583919061204a565b60405180910390f35b6105a660048036038101906105a19190611eaa565b610cf6565b6040516105b39190612014565b60405180910390f35b6105d660048036038101906105d19190611ed3565b610d08565b6040516105e3919061204a565b60405180910390f35b61060660048036038101906106019190611ed3565b610d1c565b604051610613919061204a565b60405180910390f35b61063660048036038101906106319190611ed3565b610d30565b604051610643919061204a565b60405180910390f35b610654610d44565b604051610661919061204a565b60405180910390f35b610684600480360381019061067f9190611f5e565b610d4a565b604051610691919061204a565b60405180910390f35b6106b460048036038101906106af9190611ed3565b610d66565b6040516106c1919061204a565b60405180910390f35b6106e460048036038101906106df9190611eaa565b610d7a565b6040516106f1919061204a565b60405180910390f35b610714600480360381019061070f9190611ed3565b610d8c565b604051610721919061204a565b60405180910390f35b610732610da0565b60405161073f919061204a565b60405180910390f35b610762600480360381019061075d9190611ed3565b610da7565b60405161076f919061204a565b60405180910390f35b610792600480360381019061078d9190611ed3565b610dbb565b60405161079f919061204a565b60405180910390f35b6107c260048036038101906107bd9190611eaa565b610dcf565b6040516107cf919061204a565b60405180910390f35b6107e0610de1565b6040516107ed919061204a565b60405180910390f35b610810600480360381019061080b9190611ed3565b610de6565b60405161081d919061204a565b60405180910390f35b610840600480360381019061083b9190611eaa565b610dfa565b60405161084f93929190612065565b60405180910390f35b610860610e15565b6040516108729695949392919061209c565b60405180910390f35b61089560048036038101906108909190611eaa565b610e47565b6040516108a2919061204a565b60405180910390f35b6108c560048036038101906108c09190611ed3565b610e59565b6040516108d2919061204a565b60405180910390f35b6108f560048036038101906108f09190611eaa565b610e6d565b604051610902919061204a565b60405180910390f35b610913610e7f565b604051610920919061202f565b60405180910390f35b610943600480360381019061093e9190611ed3565b610e86565b604051610950919061204a565b60405180910390f35b610973600480360381019061096e9190611eaa565b610e9a565b6040516109809190612014565b60405180910390f35b610991610eac565b60405161099e919061204a565b60405180910390f35b6109c160048036038101906109bc9190611eaa565b610eb4565b6040516109ce9190612014565b60405180910390f35b6109f160048036038101906109ec9190611ed3565b610ec6565b6040516109fe919061204a565b60405180910390f35b610a0f610eda565b604051610a1c919061204a565b60405180910390f35b610a3f6004803603810190610a3a9190611ed3565b610edf565b604051610a4c919061204a565b60405180910390f35b610a5d610ef3565b604051610a6a919061204a565b60405180910390f35b610a7b610ef8565b604051610a88919061204a565b60405180910390f35b610aab6004803603810190610aa69190611eaa565b610efd565b604051610ab89190612014565b60405180910390f35b610adb6004803603810190610ad69190611eaa565b610f0f565b604051610aea93929190612065565b60405180910390f35b610afb610f30565b604051610b08919061204a565b60405180910390f35b610b2b6004803603810190610b269190611eaa565b610f35565b604051610b3d9695949392919061209c565b60405180910390f35b610b606004803603810190610b5b9190611ed3565b610f68565b604051610b6d919061204a565b60405180910390f35b610b7e610f7c565b604051610b8b919061204a565b60405180910390f35b610bae6004803603810190610ba99190611eaa565b610f81565b604051610bbb919061204a565b60405180910390f35b610bde6004803603810190610bd99190611ed3565b610f93565b604051610beb919061204a565b60405180910390f35b6000610c008383610fa7565b905092915050565b6000610c148383610fd7565b905092915050565b6000610c2782611006565b9050919050565b600281565b6000610c4084848461103a565b90509392505050565b6000610c56848484611091565b90509392505050565b6000610c6c8484846111f0565b90509392505050565b6000610c8082611214565b9050919050565b600781565b6000610c988383611255565b905092915050565b6000610cb0878787878787611285565b90509695505050505050565b6000610cc7826112c8565b9050919050565b6000610cda83836112f2565b905092915050565b6000610cee838361137d565b905092915050565b6000610d0182611460565b9050919050565b6000610d148383611476565b905092915050565b6000610d28838361150c565b905092915050565b6000610d3c83836115a2565b905092915050565b610e1081565b6000610d5a8787878787876115d2565b90509695505050505050565b6000610d728383611633565b905092915050565b6000610d8582611656565b9050919050565b6000610d98838361167d565b905092915050565b6201518081565b6000610db383836116ae565b905092915050565b6000610dc78383611741565b905092915050565b6000610dda82611770565b9050919050565b600381565b6000610df28383611786565b905092915050565b6000806000610e08846117a9565b9250925092509193909250565b600080600080600080610e27426119b8565b809650819750829850839950849a50859b50505050505050909192939495565b6000610e5282611b41565b9050919050565b6000610e658383611b66565b905092915050565b6000610e7882611b95565b9050919050565b62253d8c81565b6000610e928383611bbb565b905092915050565b6000610ea582611ca1565b9050919050565b600042905090565b6000610ebf82611cea565b9050919050565b6000610ed28383611d19565b905092915050565b600681565b6000610eeb8383611d4a565b905092915050565b600481565b600581565b6000610f0882611d7b565b9050919050565b6000806000610f1d84611d91565b8093508194508295505050509193909250565b603c81565b600080600080600080610f47876119b8565b809650819750829850839950849a50859b5050505050505091939550919395565b6000610f748383611deb565b905092915050565b600181565b6000610f8c82611e0e565b9050919050565b6000610f9f8383611e36565b905092915050565b6000610e1082610fb79190612399565b83610fc29190612487565b905082811115610fd157600080fd5b92915050565b600081831115610fe657600080fd5b603c8383610ff49190612487565b610ffe9190612251565b905092915050565b6000806000611022620151808561101d9190612251565b6117a9565b509150915061103182826112f2565b92505050919050565b60006107b2841015801561104e5750600083115b801561105b5750600c8311155b1561108a57600061106c85856112f2565b905060008311801561107e5750808311155b1561108857600191505b505b9392505050565b60006107b28410156110a257600080fd5b600084905060008490506000849050600062253d8c60046064600c600e876110ca91906123f3565b6110d491906121e7565b611324886110e291906120fd565b6110ec91906120fd565b6110f691906121e7565b60036111029190612282565b61110c91906121e7565b600c80600c600e8861111e91906123f3565b61112891906121e7565b6111329190612282565b60028761113f91906123f3565b61114991906123f3565b61016f6111569190612282565b61116091906121e7565b6004600c600e8861117191906123f3565b61117b91906121e7565b6112c08961118991906120fd565b61119391906120fd565b6105b56111a09190612282565b6111aa91906121e7565b617d4b866111b891906123f3565b6111c291906120fd565b6111cc91906120fd565b6111d691906123f3565b6111e091906123f3565b9050809450505050509392505050565b600062015180611201858585611091565b61120b9190612399565b90509392505050565b60008062015180836112269190612251565b9050600160076003836112399190612191565b61124391906124db565b61124d9190612191565b915050919050565b60008183111561126457600080fd5b610e1083836112739190612487565b61127d9190612251565b905092915050565b600061129287878761103a565b156112be576018841080156112a75750603c83105b80156112b35750603c82105b156112bd57600190505b5b9695505050505050565b60008062015180836112da91906124db565b9050610e10816112ea9190612251565b915050919050565b600060018214806113035750600382145b8061130e5750600582145b806113195750600782145b806113245750600882145b8061132f5750600a82145b8061133a5750600c82145b1561134857601f9050611377565b6002821461135957601e9050611376565b61136283611ca1565b61136d57601c611370565b601d5b60ff1690505b5b92915050565b60008060008061139a62015180876113959190612251565b6117a9565b92509250925084826113ac9190612191565b9150600c6001836113bd9190612487565b6113c79190612251565b836113d29190612191565b92506001600c6001846113e59190612487565b6113ef91906124db565b6113f99190612191565b9150600061140784846112f2565b905080821115611415578091505b620151808761142491906124db565b62015180611433868686611091565b61143d9190612399565b6114479190612191565b94508685101561145657600080fd5b5050505092915050565b6000600661146d83611214565b10159050919050565b600080600080611493620151808761148e9190612251565b6117a9565b92509250925084836114a59190612191565b925060006114b384846112f2565b9050808211156114c1578091505b62015180876114d091906124db565b620151806114df868686611091565b6114e99190612399565b6114f39190612191565b94508685101561150257600080fd5b5050505092915050565b60008060008061152962015180876115249190612251565b6117a9565b925092509250848361153b9190612487565b9250600061154984846112f2565b905080821115611557578091505b620151808761156691906124db565b62015180611575868686611091565b61157f9190612399565b6115899190612191565b94508685111561159857600080fd5b5050505092915050565b6000610e10826115b29190612399565b836115bd9190612191565b9050828110156115cc57600080fd5b92915050565b600081603c846115e29190612399565b610e10866115f09190612399565b620151806115ff8b8b8b611091565b6116099190612399565b6116139190612191565b61161d9190612191565b6116279190612191565b90509695505050505050565b60008183111561164257600080fd5b828261164e9190612487565b905092915050565b600061166f620151808361166a9190612251565b6117a9565b909150905080915050919050565b6000620151808261168e9190612399565b836116999190612191565b9050828110156116a857600080fd5b92915050565b6000818311156116bd57600080fd5b6000806116d762015180866116d29190612251565b6117a9565b50915091506000806116f662015180876116f19190612251565b6117a9565b509150915082600c856117099190612399565b82600c856117179190612399565b6117219190612191565b61172b9190612487565b6117359190612487565b94505050505092915050565b6000603c826117509190612399565b8361175b9190612191565b90508281101561176a57600080fd5b92915050565b6000603c8261177f91906124db565b9050919050565b600081836117949190612191565b9050828110156117a357600080fd5b92915050565b600080600080849050600062253d8c62010bd98301019050600062023ab182600402816117ff577f4e487b7100000000000000000000000000000000000000000000000000000000600052601260045260246000fd5b059050600460038262023ab1020181611841577f4e487b7100000000000000000000000000000000000000000000000000000000600052601260045260246000fd5b0582039150600062164b0960018401610fa00281611888577f4e487b7100000000000000000000000000000000000000000000000000000000600052601260045260246000fd5b059050601f6004826105b502816118c8577f4e487b7100000000000000000000000000000000000000000000000000000000600052601260045260246000fd5b058403019250600061098f846050028161190b577f4e487b7100000000000000000000000000000000000000000000000000000000600052601260045260246000fd5b059050600060508261098f028161194b577f4e487b7100000000000000000000000000000000000000000000000000000000600052601260045260246000fd5b0585039050600b8281611987577f4e487b7100000000000000000000000000000000000000000000000000000000600052601260045260246000fd5b05945084600c0260028301039150848360318603606402010192508298508197508096505050505050509193909250565b600080600080600080611a036201518088816119fd577f4e487b7100000000000000000000000000000000000000000000000000000000600052601260045260246000fd5b046117a9565b8096508197508298505050506000620151808881611a4a577f4e487b7100000000000000000000000000000000000000000000000000000000600052601260045260246000fd5b069050610e108181611a85577f4e487b7100000000000000000000000000000000000000000000000000000000600052601260045260246000fd5b049350610e108181611ac0577f4e487b7100000000000000000000000000000000000000000000000000000000600052601260045260246000fd5b069050603c8181611afa577f4e487b7100000000000000000000000000000000000000000000000000000000600052601260045260246000fd5b049250603c8181611b34577f4e487b7100000000000000000000000000000000000000000000000000000000600052601260045260246000fd5b0691505091939550919395565b6000611b5a6201518083611b559190612251565b6117a9565b90505080915050919050565b6000603c82611b759190612399565b83611b809190612487565b905082811115611b8f57600080fd5b92915050565b6000611bae6201518083611ba99190612251565b6117a9565b9091505080915050919050565b600080600080611bd86201518087611bd39190612251565b6117a9565b925092509250600085600184611bee9190612487565b600c86611bfb9190612399565b611c059190612191565b611c0f9190612487565b9050600c81611c1e9190612251565b93506001600c82611c2f91906124db565b611c399190612191565b92506000611c4785856112f2565b905080831115611c55578092505b6201518088611c6491906124db565b62015180611c73878787611091565b611c7d9190612399565b611c879190612191565b955087861115611c9657600080fd5b505050505092915050565b600080600483611cb191906124db565b148015611ccb57506000606483611cc891906124db565b14155b80611ce35750600061019083611ce191906124db565b145b9050919050565b600080611d046201518084611cff9190612251565b6117a9565b50509050611d1181611ca1565b915050919050565b60006201518082611d2a9190612399565b83611d359190612487565b905082811115611d4457600080fd5b92915050565b600081831115611d5957600080fd5b620151808383611d699190612487565b611d739190612251565b905092915050565b60006005611d8883611214565b11159050919050565b6000806000611dd8620151808581611dd2577f4e487b7100000000000000000000000000000000000000000000000000000000600052601260045260246000fd5b046117a9565b8093508194508295505050509193909250565b60008183611df99190612487565b905082811115611e0857600080fd5b92915050565b600080610e1083611e1f91906124db565b9050603c81611e2e9190612251565b915050919050565b600081831115611e4557600080fd5b6000611e5e6201518085611e599190612251565b6117a9565b505090506000611e7b6201518085611e769190612251565b6117a9565b505090508181611e8b9190612487565b9250505092915050565b600081359050611ea48161256a565b92915050565b600060208284031215611ebc57600080fd5b6000611eca84828501611e95565b91505092915050565b60008060408385031215611ee657600080fd5b6000611ef485828601611e95565b9250506020611f0585828601611e95565b9150509250929050565b600080600060608486031215611f2457600080fd5b6000611f3286828701611e95565b9350506020611f4386828701611e95565b9250506040611f5486828701611e95565b9150509250925092565b60008060008060008060c08789031215611f7757600080fd5b6000611f8589828a01611e95565b9650506020611f9689828a01611e95565b9550506040611fa789828a01611e95565b9450506060611fb889828a01611e95565b9350506080611fc989828a01611e95565b92505060a0611fda89828a01611e95565b9150509295509295509295565b611ff0816124bb565b82525050565b611fff816124c7565b82525050565b61200e816124d1565b82525050565b60006020820190506120296000830184611fe7565b92915050565b60006020820190506120446000830184611ff6565b92915050565b600060208201905061205f6000830184612005565b92915050565b600060608201905061207a6000830186612005565b6120876020830185612005565b6120946040830184612005565b949350505050565b600060c0820190506120b16000830189612005565b6120be6020830188612005565b6120cb6040830187612005565b6120d86060830186612005565b6120e56080830185612005565b6120f260a0830184612005565b979650505050505050565b6000612108826124c7565b9150612113836124c7565b9250817f7fffffffffffffffffffffffffffffffffffffffffffffffffffffffffffffff0383136000831215161561214e5761214d61250c565b5b817f80000000000000000000000000000000000000000000000000000000000000000383126000831216156121865761218561250c565b5b828201905092915050565b600061219c826124d1565b91506121a7836124d1565b9250827fffffffffffffffffffffffffffffffffffffffffffffffffffffffffffffffff038211156121dc576121db61250c565b5b828201905092915050565b60006121f2826124c7565b91506121fd836124c7565b92508261220d5761220c61253b565b5b600160000383147f8000000000000000000000000000000000000000000000000000000000000000831416156122465761224561250c565b5b828205905092915050565b600061225c826124d1565b9150612267836124d1565b9250826122775761227661253b565b5b828204905092915050565b600061228d826124c7565b9150612298836124c7565b9250827f7fffffffffffffffffffffffffffffffffffffffffffffffffffffffffffffff04821160008413600084131616156122d7576122d661250c565b5b817f800000000000000000000000000000000000000000000000000000000000000005831260008412600084131616156123145761231361250c565b5b827f800000000000000000000000000000000000000000000000000000000000000005821260008413600084121616156123515761235061250c565b5b827f7fffffffffffffffffffffffffffffffffffffffffffffffffffffffffffffff058212600084126000841216161561238e5761238d61250c565b5b828202905092915050565b60006123a4826124d1565b91506123af836124d1565b9250817fffffffffffffffffffffffffffffffffffffffffffffffffffffffffffffffff04831182151516156123e8576123e761250c565b5b828202905092915050565b60006123fe826124c7565b9150612409836124c7565b9250827f8000000000000000000000000000000000000000000000000000000000000000018212600084121516156124445761244361250c565b5b827f7fffffffffffffffffffffffffffffffffffffffffffffffffffffffffffffff01821360008412161561247c5761247b61250c565b5b828203905092915050565b6000612492826124d1565b915061249d836124d1565b9250828210156124b0576124af61250c565b5b828203905092915050565b60008115159050919050565b6000819050919050565b6000819050919050565b60006124e6826124d1565b91506124f1836124d1565b9250826125015761250061253b565b5b828206905092915050565b7f4e487b7100000000000000000000000000000000000000000000000000000000600052601160045260246000fd5b7f4e487b7100000000000000000000000000000000000000000000000000000000600052601260045260246000fd5b612573816124d1565b811461257e57600080fd5b5056fea264697066735822122097bc915c223a8cd3b04b4681b53791103189e55dca1e1299e8edd7f1e508d4a064736f6c63430008000033",
  "immutableReferences": {},
  "source": "// SPDX-License-Identifier: MIT\r\npragma solidity ^0.8.0;\r\n\r\n// ----------------------------------------------------------------------------\r\n// DateTime Library v2.0 - Contract Instance\r\n//\r\n// A gas-efficient Solidity date and time library\r\n//\r\n// https://github.com/bokkypoobah/DateTime\r\n//\r\n// Tested date range 1970/01/01 to 2345/12/31\r\n//\r\n// Conventions:\r\n// Unit      | Range         | Notes\r\n// :-------- |:-------------:|:-----\r\n// timestamp | >= 0          | Unix timestamp, number of seconds since 1970/01/01 00:00:00 UTC\r\n// year      | 1970 ... 2345 |\r\n// month     | 1 ... 12      |\r\n// day       | 1 ... 31      |\r\n// hour      | 0 ... 23      |\r\n// minute    | 0 ... 59      |\r\n// second    | 0 ... 59      |\r\n// dayOfWeek | 1 ... 7       | 1 = Monday, ..., 7 = Sunday\r\n//\r\n//\r\n// Enjoy. (c) BokkyPooBah / Bok Consulting Pty Ltd 2018.\r\n//\r\n// GNU Lesser General Public License 3.0\r\n// https://www.gnu.org/licenses/lgpl-3.0.en.html\r\n// ----------------------------------------------------------------------------\r\n\r\nimport \"./DateTime.sol\";\r\n\r\ncontract DateTimeContract {\r\n    uint256 public constant SECONDS_PER_DAY = 24 * 60 * 60;\r\n    uint256 public constant SECONDS_PER_HOUR = 60 * 60;\r\n    uint256 public constant SECONDS_PER_MINUTE = 60;\r\n    int256 public constant OFFSET19700101 = 2440588;\r\n\r\n    uint256 public constant DOW_MON = 1;\r\n    uint256 public constant DOW_TUE = 2;\r\n    uint256 public constant DOW_WED = 3;\r\n    uint256 public constant DOW_THU = 4;\r\n    uint256 public constant DOW_FRI = 5;\r\n    uint256 public constant DOW_SAT = 6;\r\n    uint256 public constant DOW_SUN = 7;\r\n\r\n    function _now() public view returns (uint256 timestamp) {\r\n        timestamp = block.timestamp;\r\n    }\r\n\r\n    function _nowDateTime() public view returns (uint256 year, uint256 month, uint256 day, uint256 hour, uint256 minute, uint256 second){\r\n        (year, month, day, hour, minute, second) = DateTime.timestampToDateTime(block.timestamp);\r\n    }\r\n\r\n    function _daysFromDate(uint256 year, uint256 month, uint256 day) public pure returns (uint256 _days) {\r\n        return DateTime._daysFromDate(year, month, day);\r\n    }\r\n\r\n    function _daysToDate(uint256 _days) public pure returns (uint256 year, uint256 month, uint256 day) {\r\n        return DateTime._daysToDate(_days);\r\n    }\r\n\r\n    function timestampFromDate(uint256 year, uint256 month, uint256 day) public pure returns (uint256 timestamp) {\r\n        return DateTime.timestampFromDate(year, month, day);\r\n    }\r\n\r\n    function timestampFromDateTime(uint256 year, uint256 month, uint256 day, uint256 hour, uint256 minute, uint256 second) public pure returns (uint256 timestamp) {\r\n        return DateTime.timestampFromDateTime(year, month, day, hour, minute, second);\r\n    }\r\n\r\n    function timestampToDate(uint256 timestamp) public pure returns (uint256 year, uint256 month, uint256 day) {\r\n        (year, month, day) = DateTime.timestampToDate(timestamp);\r\n    }\r\n\r\n    function timestampToDateTime(uint256 timestamp) public pure returns (uint256 year, uint256 month, uint256 day, uint256 hour, uint256 minute, uint256 second){\r\n        (year, month, day, hour, minute, second) = DateTime.timestampToDateTime(timestamp);\r\n    }\r\n\r\n    function isValidDate(uint256 year, uint256 month, uint256 day) public pure returns (bool valid) {\r\n        valid = DateTime.isValidDate(year, month, day);\r\n    }\r\n\r\n    function isValidDateTime(uint256 year, uint256 month, uint256 day, uint256 hour, uint256 minute, uint256 second) public pure returns (bool valid) {\r\n        valid = DateTime.isValidDateTime(year, month, day, hour, minute, second);\r\n    }\r\n\r\n    function isLeapYear(uint256 timestamp) public pure returns (bool leapYear) {\r\n        leapYear = DateTime.isLeapYear(timestamp);\r\n    }\r\n\r\n    function _isLeapYear(uint256 year) public pure returns (bool leapYear) {\r\n        leapYear = DateTime._isLeapYear(year);\r\n    }\r\n\r\n    function isWeekDay(uint256 timestamp) public pure returns (bool weekDay) {\r\n        weekDay = DateTime.isWeekDay(timestamp);\r\n    }\r\n\r\n    function isWeekEnd(uint256 timestamp) public pure returns (bool weekEnd) {\r\n        weekEnd = DateTime.isWeekEnd(timestamp);\r\n    }\r\n\r\n    function getDaysInMonth(uint256 timestamp) public pure returns (uint256 daysInMonth) {\r\n        daysInMonth = DateTime.getDaysInMonth(timestamp);\r\n    }\r\n\r\n    function _getDaysInMonth(uint256 year, uint256 month) public pure returns (uint256 daysInMonth) {\r\n        daysInMonth = DateTime._getDaysInMonth(year, month);\r\n    }\r\n\r\n    function getDayOfWeek(uint256 timestamp) public pure returns (uint256 dayOfWeek) {\r\n        dayOfWeek = DateTime.getDayOfWeek(timestamp);\r\n    }\r\n\r\n    function getYear(uint256 timestamp) public pure returns (uint256 year) {\r\n        year = DateTime.getYear(timestamp);\r\n    }\r\n\r\n    function getMonth(uint256 timestamp) public pure returns (uint256 month) {\r\n        month = DateTime.getMonth(timestamp);\r\n    }\r\n\r\n    function getDay(uint256 timestamp) public pure returns (uint256 day) {\r\n        day = DateTime.getDay(timestamp);\r\n    }\r\n\r\n    function getHour(uint256 timestamp) public pure returns (uint256 hour) {\r\n        hour = DateTime.getHour(timestamp);\r\n    }\r\n\r\n    function getMinute(uint256 timestamp) public pure returns (uint256 minute) {\r\n        minute = DateTime.getMinute(timestamp);\r\n    }\r\n\r\n    function getSecond(uint256 timestamp) public pure returns (uint256 second) {\r\n        second = DateTime.getSecond(timestamp);\r\n    }\r\n\r\n    function addYears(uint256 timestamp, uint256 _years) public pure returns (uint256 newTimestamp) {\r\n        newTimestamp = DateTime.addYears(timestamp, _years);\r\n    }\r\n\r\n    function addMonths(uint256 timestamp, uint256 _months) public pure returns (uint256 newTimestamp) {\r\n        newTimestamp = DateTime.addMonths(timestamp, _months);\r\n    }\r\n\r\n    function addDays(uint256 timestamp, uint256 _days) public pure returns (uint256 newTimestamp) {\r\n        newTimestamp = DateTime.addDays(timestamp, _days);\r\n    }\r\n\r\n    function addHours(uint256 timestamp, uint256 _hours) public pure returns (uint256 newTimestamp) {\r\n        newTimestamp = DateTime.addHours(timestamp, _hours);\r\n    }\r\n\r\n    function addMinutes(uint256 timestamp, uint256 _minutes) public pure returns (uint256 newTimestamp) {\r\n        newTimestamp = DateTime.addMinutes(timestamp, _minutes);\r\n    }\r\n\r\n    function addSeconds(uint256 timestamp, uint256 _seconds) public pure returns (uint256 newTimestamp) {\r\n        newTimestamp = DateTime.addSeconds(timestamp, _seconds);\r\n    }\r\n\r\n    function subYears(uint256 timestamp, uint256 _years) public pure returns (uint256 newTimestamp) {\r\n        newTimestamp = DateTime.subYears(timestamp, _years);\r\n    }\r\n\r\n    function subMonths(uint256 timestamp, uint256 _months) public pure returns (uint256 newTimestamp) {\r\n        newTimestamp = DateTime.subMonths(timestamp, _months);\r\n    }\r\n\r\n    function subDays(uint256 timestamp, uint256 _days) public pure returns (uint256 newTimestamp) {\r\n        newTimestamp = DateTime.subDays(timestamp, _days);\r\n    }\r\n\r\n    function subHours(uint256 timestamp, uint256 _hours) public pure returns (uint256 newTimestamp) {\r\n        newTimestamp = DateTime.subHours(timestamp, _hours);\r\n    }\r\n\r\n    function subMinutes(uint256 timestamp, uint256 _minutes) public pure returns (uint256 newTimestamp) {\r\n        newTimestamp = DateTime.subMinutes(timestamp, _minutes);\r\n    }\r\n\r\n    function subSeconds(uint256 timestamp, uint256 _seconds) public pure returns (uint256 newTimestamp) {\r\n        newTimestamp = DateTime.subSeconds(timestamp, _seconds);\r\n    }\r\n\r\n    function diffYears(uint256 fromTimestamp, uint256 toTimestamp) public pure returns (uint256 _years) {\r\n        _years = DateTime.diffYears(fromTimestamp, toTimestamp);\r\n    }\r\n\r\n    function diffMonths(uint256 fromTimestamp, uint256 toTimestamp) public pure returns (uint256 _months) {\r\n        _months = DateTime.diffMonths(fromTimestamp, toTimestamp);\r\n    }\r\n\r\n    function diffDays(uint256 fromTimestamp, uint256 toTimestamp) public pure returns (uint256 _days) {\r\n        _days = DateTime.diffDays(fromTimestamp, toTimestamp);\r\n    }\r\n\r\n    function diffHours(uint256 fromTimestamp, uint256 toTimestamp) public pure returns (uint256 _hours) {\r\n        _hours = DateTime.diffHours(fromTimestamp, toTimestamp);\r\n    }\r\n\r\n    function diffMinutes(uint256 fromTimestamp, uint256 toTimestamp) public pure returns (uint256 _minutes) {\r\n        _minutes = DateTime.diffMinutes(fromTimestamp, toTimestamp);\r\n    }\r\n\r\n    function diffSeconds(uint256 fromTimestamp, uint256 toTimestamp) public pure returns (uint256 _seconds) {\r\n        _seconds = DateTime.diffSeconds(fromTimestamp, toTimestamp);\r\n    }\r\n    \r\n}",
  "sourcePath": "E:\\Smart Contracts\\React_Projects\\tfm\\contracts\\DateTimeContract.sol",
  "compiler": {
    "name": "solc",
    "version": "0.8.0+commit.c7dfd78e.Emscripten.clang"
  },
  "schemaVersion": "3.4.13",
  "updatedAt": "2023-06-17T07:53:24.383Z",
  "networkType": "ethereum",
  "devdoc": {
    "kind": "dev",
    "methods": {},
    "version": 1
  },
  "userdoc": {
    "kind": "user",
    "methods": {},
    "version": 1
  }
}