{
  "address": "0x0a50a5382f271e712b6dfDD15f15D74699393FDC",
  "contractName": "TFMToken",
  "abi": [
    {
      "inputs": [
        {
          "internalType": "address",
          "name": "_admin_address",
          "type": "address"
        }
      ],
      "stateMutability": "nonpayable",
      "type": "constructor"
    },
    {
      "anonymous": false,
      "inputs": [
        {
          "indexed": true,
          "internalType": "address",
          "name": "owner",
          "type": "address"
        },
        {
          "indexed": true,
          "internalType": "address",
          "name": "spender",
          "type": "address"
        },
        {
          "indexed": false,
          "internalType": "uint256",
          "name": "value",
          "type": "uint256"
        }
      ],
      "name": "Approval",
      "type": "event"
    },
    {
      "anonymous": false,
      "inputs": [
        {
          "indexed": true,
          "internalType": "address",
          "name": "from",
          "type": "address"
        },
        {
          "indexed": true,
          "internalType": "address",
          "name": "to",
          "type": "address"
        },
        {
          "indexed": false,
          "internalType": "uint256",
          "name": "value",
          "type": "uint256"
        }
      ],
      "name": "Transfer",
      "type": "event"
    },
    {
      "inputs": [],
      "name": "Admin",
      "outputs": [
        {
          "internalType": "address",
          "name": "",
          "type": "address"
        }
      ],
      "stateMutability": "view",
      "type": "function",
      "constant": true
    },
    {
      "inputs": [],
      "name": "Airdrop_Address",
      "outputs": [
        {
          "internalType": "address",
          "name": "",
          "type": "address"
        }
      ],
      "stateMutability": "view",
      "type": "function",
      "constant": true
    },
    {
      "inputs": [
        {
          "internalType": "address",
          "name": "",
          "type": "address"
        }
      ],
      "name": "Check_Userid",
      "outputs": [
        {
          "internalType": "bool",
          "name": "",
          "type": "bool"
        }
      ],
      "stateMutability": "view",
      "type": "function",
      "constant": true
    },
    {
      "inputs": [
        {
          "internalType": "address",
          "name": "",
          "type": "address"
        }
      ],
      "name": "Claim_Bool",
      "outputs": [
        {
          "internalType": "bool",
          "name": "",
          "type": "bool"
        }
      ],
      "stateMutability": "view",
      "type": "function",
      "constant": true
    },
    {
      "inputs": [
        {
          "internalType": "address",
          "name": "",
          "type": "address"
        }
      ],
      "name": "Claim_Record",
      "outputs": [
        {
          "internalType": "uint256",
          "name": "",
          "type": "uint256"
        }
      ],
      "stateMutability": "view",
      "type": "function",
      "constant": true
    },
    {
      "inputs": [],
      "name": "Contract_Address",
      "outputs": [
        {
          "internalType": "address",
          "name": "",
          "type": "address"
        }
      ],
      "stateMutability": "view",
      "type": "function",
      "constant": true
    },
    {
      "inputs": [],
      "name": "Presale_Address",
      "outputs": [
        {
          "internalType": "address",
          "name": "",
          "type": "address"
        }
      ],
      "stateMutability": "view",
      "type": "function",
      "constant": true
    },
    {
      "inputs": [
        {
          "internalType": "address",
          "name": "",
          "type": "address"
        }
      ],
      "name": "Sponser_Count",
      "outputs": [
        {
          "internalType": "uint256",
          "name": "",
          "type": "uint256"
        }
      ],
      "stateMutability": "view",
      "type": "function",
      "constant": true
    },
    {
      "inputs": [
        {
          "internalType": "address",
          "name": "",
          "type": "address"
        }
      ],
      "name": "Sponser_Eth_Condition",
      "outputs": [
        {
          "internalType": "bool",
          "name": "",
          "type": "bool"
        }
      ],
      "stateMutability": "view",
      "type": "function",
      "constant": true
    },
    {
      "inputs": [
        {
          "internalType": "address",
          "name": "",
          "type": "address"
        },
        {
          "internalType": "uint256",
          "name": "",
          "type": "uint256"
        }
      ],
      "name": "Sponser_Eth_Record",
      "outputs": [
        {
          "internalType": "uint256",
          "name": "",
          "type": "uint256"
        }
      ],
      "stateMutability": "view",
      "type": "function",
      "constant": true
    },
    {
      "inputs": [
        {
          "internalType": "address",
          "name": "",
          "type": "address"
        },
        {
          "internalType": "uint256",
          "name": "",
          "type": "uint256"
        }
      ],
      "name": "Today_Presale_Bool",
      "outputs": [
        {
          "internalType": "bool",
          "name": "",
          "type": "bool"
        }
      ],
      "stateMutability": "view",
      "type": "function",
      "constant": true
    },
    {
      "inputs": [
        {
          "internalType": "address",
          "name": "",
          "type": "address"
        },
        {
          "internalType": "uint256",
          "name": "",
          "type": "uint256"
        }
      ],
      "name": "Today_Presale_No",
      "outputs": [
        {
          "internalType": "uint256",
          "name": "",
          "type": "uint256"
        }
      ],
      "stateMutability": "view",
      "type": "function",
      "constant": true
    },
    {
      "inputs": [],
      "name": "Total_Id_Count",
      "outputs": [
        {
          "internalType": "uint256",
          "name": "",
          "type": "uint256"
        }
      ],
      "stateMutability": "view",
      "type": "function",
      "constant": true
    },
    {
      "inputs": [
        {
          "internalType": "address",
          "name": "",
          "type": "address"
        }
      ],
      "name": "Total_Presale_Count",
      "outputs": [
        {
          "internalType": "uint256",
          "name": "",
          "type": "uint256"
        }
      ],
      "stateMutability": "view",
      "type": "function",
      "constant": true
    },
    {
      "inputs": [
        {
          "internalType": "address",
          "name": "",
          "type": "address"
        }
      ],
      "name": "Total_Withdrawl_Count",
      "outputs": [
        {
          "internalType": "uint256",
          "name": "",
          "type": "uint256"
        }
      ],
      "stateMutability": "view",
      "type": "function",
      "constant": true
    },
    {
      "inputs": [
        {
          "internalType": "address",
          "name": "",
          "type": "address"
        },
        {
          "internalType": "uint256",
          "name": "",
          "type": "uint256"
        }
      ],
      "name": "Total_Withdrawl_DateTime_Record",
      "outputs": [
        {
          "internalType": "uint256",
          "name": "",
          "type": "uint256"
        }
      ],
      "stateMutability": "view",
      "type": "function",
      "constant": true
    },
    {
      "inputs": [
        {
          "internalType": "address",
          "name": "",
          "type": "address"
        },
        {
          "internalType": "uint256",
          "name": "",
          "type": "uint256"
        }
      ],
      "name": "Total_Withdrawl_Record",
      "outputs": [
        {
          "internalType": "uint256",
          "name": "",
          "type": "uint256"
        }
      ],
      "stateMutability": "view",
      "type": "function",
      "constant": true
    },
    {
      "inputs": [
        {
          "internalType": "address",
          "name": "",
          "type": "address"
        },
        {
          "internalType": "uint256",
          "name": "",
          "type": "uint256"
        }
      ],
      "name": "User_Presale_Record",
      "outputs": [
        {
          "internalType": "uint256",
          "name": "",
          "type": "uint256"
        }
      ],
      "stateMutability": "view",
      "type": "function",
      "constant": true
    },
    {
      "inputs": [
        {
          "internalType": "address",
          "name": "",
          "type": "address"
        },
        {
          "internalType": "uint256",
          "name": "",
          "type": "uint256"
        }
      ],
      "name": "User_Today_Presale_Amount",
      "outputs": [
        {
          "internalType": "uint256",
          "name": "",
          "type": "uint256"
        }
      ],
      "stateMutability": "view",
      "type": "function",
      "constant": true
    },
    {
      "inputs": [
        {
          "internalType": "address",
          "name": "",
          "type": "address"
        },
        {
          "internalType": "uint256",
          "name": "",
          "type": "uint256"
        }
      ],
      "name": "User_Today_Presale_Exchange_Amount",
      "outputs": [
        {
          "internalType": "uint256",
          "name": "",
          "type": "uint256"
        }
      ],
      "stateMutability": "view",
      "type": "function",
      "constant": true
    },
    {
      "inputs": [
        {
          "internalType": "address",
          "name": "",
          "type": "address"
        }
      ],
      "name": "Withdrawl_Eth",
      "outputs": [
        {
          "internalType": "uint256",
          "name": "",
          "type": "uint256"
        }
      ],
      "stateMutability": "view",
      "type": "function",
      "constant": true
    },
    {
      "inputs": [
        {
          "internalType": "address",
          "name": "owner",
          "type": "address"
        },
        {
          "internalType": "address",
          "name": "spender",
          "type": "address"
        }
      ],
      "name": "allowance",
      "outputs": [
        {
          "internalType": "uint256",
          "name": "",
          "type": "uint256"
        }
      ],
      "stateMutability": "view",
      "type": "function",
      "constant": true
    },
    {
      "inputs": [
        {
          "internalType": "address",
          "name": "spender",
          "type": "address"
        },
        {
          "internalType": "uint256",
          "name": "amount",
          "type": "uint256"
        }
      ],
      "name": "approve",
      "outputs": [
        {
          "internalType": "bool",
          "name": "",
          "type": "bool"
        }
      ],
      "stateMutability": "nonpayable",
      "type": "function"
    },
    {
      "inputs": [
        {
          "internalType": "address",
          "name": "account",
          "type": "address"
        }
      ],
      "name": "balanceOf",
      "outputs": [
        {
          "internalType": "uint256",
          "name": "",
          "type": "uint256"
        }
      ],
      "stateMutability": "view",
      "type": "function",
      "constant": true
    },
    {
      "inputs": [],
      "name": "decimals",
      "outputs": [
        {
          "internalType": "uint8",
          "name": "",
          "type": "uint8"
        }
      ],
      "stateMutability": "view",
      "type": "function",
      "constant": true
    },
    {
      "inputs": [
        {
          "internalType": "address",
          "name": "spender",
          "type": "address"
        },
        {
          "internalType": "uint256",
          "name": "subtractedValue",
          "type": "uint256"
        }
      ],
      "name": "decreaseAllowance",
      "outputs": [
        {
          "internalType": "bool",
          "name": "",
          "type": "bool"
        }
      ],
      "stateMutability": "nonpayable",
      "type": "function"
    },
    {
      "inputs": [
        {
          "internalType": "address",
          "name": "spender",
          "type": "address"
        },
        {
          "internalType": "uint256",
          "name": "addedValue",
          "type": "uint256"
        }
      ],
      "name": "increaseAllowance",
      "outputs": [
        {
          "internalType": "bool",
          "name": "",
          "type": "bool"
        }
      ],
      "stateMutability": "nonpayable",
      "type": "function"
    },
    {
      "inputs": [],
      "name": "name",
      "outputs": [
        {
          "internalType": "string",
          "name": "",
          "type": "string"
        }
      ],
      "stateMutability": "view",
      "type": "function",
      "constant": true
    },
    {
      "inputs": [],
      "name": "symbol",
      "outputs": [
        {
          "internalType": "string",
          "name": "",
          "type": "string"
        }
      ],
      "stateMutability": "view",
      "type": "function",
      "constant": true
    },
    {
      "inputs": [],
      "name": "totalSupply",
      "outputs": [
        {
          "internalType": "uint256",
          "name": "",
          "type": "uint256"
        }
      ],
      "stateMutability": "view",
      "type": "function",
      "constant": true
    },
    {
      "inputs": [
        {
          "internalType": "address",
          "name": "to",
          "type": "address"
        },
        {
          "internalType": "uint256",
          "name": "amount",
          "type": "uint256"
        }
      ],
      "name": "transfer",
      "outputs": [
        {
          "internalType": "bool",
          "name": "",
          "type": "bool"
        }
      ],
      "stateMutability": "nonpayable",
      "type": "function"
    },
    {
      "inputs": [
        {
          "internalType": "address",
          "name": "from",
          "type": "address"
        },
        {
          "internalType": "address",
          "name": "to",
          "type": "address"
        },
        {
          "internalType": "uint256",
          "name": "amount",
          "type": "uint256"
        }
      ],
      "name": "transferFrom",
      "outputs": [
        {
          "internalType": "bool",
          "name": "",
          "type": "bool"
        }
      ],
      "stateMutability": "nonpayable",
      "type": "function"
    },
    {
      "inputs": [],
      "name": "getname",
      "outputs": [
        {
          "internalType": "string",
          "name": "",
          "type": "string"
        }
      ],
      "stateMutability": "view",
      "type": "function",
      "constant": true
    },
    {
      "inputs": [],
      "name": "getsymbol",
      "outputs": [
        {
          "internalType": "string",
          "name": "",
          "type": "string"
        }
      ],
      "stateMutability": "view",
      "type": "function",
      "constant": true
    },
    {
      "inputs": [],
      "name": "getdecimals",
      "outputs": [
        {
          "internalType": "uint256",
          "name": "",
          "type": "uint256"
        }
      ],
      "stateMutability": "view",
      "type": "function",
      "constant": true
    },
    {
      "inputs": [],
      "name": "gettotalsupply",
      "outputs": [
        {
          "internalType": "uint256",
          "name": "",
          "type": "uint256"
        }
      ],
      "stateMutability": "view",
      "type": "function",
      "constant": true
    },
    {
      "inputs": [
        {
          "internalType": "address",
          "name": "_add",
          "type": "address"
        }
      ],
      "name": "getbalance",
      "outputs": [
        {
          "internalType": "uint256",
          "name": "",
          "type": "uint256"
        }
      ],
      "stateMutability": "view",
      "type": "function",
      "constant": true
    },
    {
      "inputs": [
        {
          "internalType": "address",
          "name": "_add",
          "type": "address"
        }
      ],
      "name": "getsponser_count",
      "outputs": [
        {
          "internalType": "uint256",
          "name": "",
          "type": "uint256"
        }
      ],
      "stateMutability": "view",
      "type": "function",
      "constant": true
    },
    {
      "inputs": [
        {
          "internalType": "address",
          "name": "to",
          "type": "address"
        },
        {
          "internalType": "uint256",
          "name": "amount",
          "type": "uint256"
        }
      ],
      "name": "transfer_to",
      "outputs": [],
      "stateMutability": "nonpayable",
      "type": "function"
    },
    {
      "inputs": [
        {
          "internalType": "string",
          "name": "who",
          "type": "string"
        },
        {
          "internalType": "address",
          "name": "_from",
          "type": "address"
        },
        {
          "internalType": "address",
          "name": "_to",
          "type": "address"
        },
        {
          "internalType": "uint256",
          "name": "_amount",
          "type": "uint256"
        }
      ],
      "name": "transfer_full",
      "outputs": [],
      "stateMutability": "nonpayable",
      "type": "function"
    },
    {
      "inputs": [
        {
          "internalType": "address",
          "name": "_spo",
          "type": "address"
        },
        {
          "internalType": "address",
          "name": "_add",
          "type": "address"
        }
      ],
      "name": "Sign_Up",
      "outputs": [],
      "stateMutability": "payable",
      "type": "function",
      "payable": true
    },
    {
      "inputs": [
        {
          "internalType": "address",
          "name": "_add",
          "type": "address"
        },
        {
          "internalType": "uint256",
          "name": "_amount",
          "type": "uint256"
        },
        {
          "internalType": "uint256",
          "name": "_datetimestamp",
          "type": "uint256"
        }
      ],
      "name": "Once_Claim_Airdrop",
      "outputs": [],
      "stateMutability": "payable",
      "type": "function",
      "payable": true
    },
    {
      "inputs": [
        {
          "internalType": "address",
          "name": "_add",
          "type": "address"
        },
        {
          "internalType": "uint256",
          "name": "_token_amount",
          "type": "uint256"
        },
        {
          "internalType": "uint256",
          "name": "_timestamp",
          "type": "uint256"
        }
      ],
      "name": "Withdraw_TFM",
      "outputs": [],
      "stateMutability": "payable",
      "type": "function",
      "payable": true
    },
    {
      "inputs": [
        {
          "internalType": "address",
          "name": "_add",
          "type": "address"
        },
        {
          "internalType": "uint256",
          "name": "_token_amount",
          "type": "uint256"
        },
        {
          "internalType": "uint256",
          "name": "_datestamp",
          "type": "uint256"
        },
        {
          "internalType": "uint256",
          "name": "_datetimestamp",
          "type": "uint256"
        }
      ],
      "name": "Buy_Presale",
      "outputs": [],
      "stateMutability": "payable",
      "type": "function",
      "payable": true
    },
    {
      "inputs": [
        {
          "internalType": "address",
          "name": "_add",
          "type": "address"
        },
        {
          "internalType": "uint256",
          "name": "_amount",
          "type": "uint256"
        }
      ],
      "name": "Burn_Tokens",
      "outputs": [],
      "stateMutability": "nonpayable",
      "type": "function"
    }
  ],
  "bytecode": "0x60806040526001600a553480156200001657600080fd5b5060405162003ec538038062003ec583398181016040528101906200003c9190620008a8565b6040518060400160405280600381526020017f54464d00000000000000000000000000000000000000000000000000000000008152506040518060400160405280600381526020017f54464d00000000000000000000000000000000000000000000000000000000008152508160039080519060200190620000c0929190620007e1565b508060049080519060200190620000d9929190620007e1565b50505030600560006101000a81548173ffffffffffffffffffffffffffffffffffffffff021916908373ffffffffffffffffffffffffffffffffffffffff1602179055506200015b600560009054906101000a900473ffffffffffffffffffffffffffffffffffffffff16692a5a058fc295ed000000620003bd60201b60201c565b80600660006101000a81548173ffffffffffffffffffffffffffffffffffffffff021916908373ffffffffffffffffffffffffffffffffffffffff1602179055507313449135184cec10953f72e93f2b9335a7c02175600760006101000a81548173ffffffffffffffffffffffffffffffffffffffff021916908373ffffffffffffffffffffffffffffffffffffffff16021790555073f9c02b9e6b17f851bc696195b40adca350a4f20b600860006101000a81548173ffffffffffffffffffffffffffffffffffffffff021916908373ffffffffffffffffffffffffffffffffffffffff160217905550600160096000600660009054906101000a900473ffffffffffffffffffffffffffffffffffffffff1673ffffffffffffffffffffffffffffffffffffffff1673ffffffffffffffffffffffffffffffffffffffff16815260200190815260200160002060006101000a81548160ff0219169083151502179055506200033b60405180606001604052806026815260200162003e9f60269139600560009054906101000a900473ffffffffffffffffffffffffffffffffffffffff16600760009054906101000a900473ffffffffffffffffffffffffffffffffffffffff1669054b40b1f852bda000006200052b60201b60201c565b620003b660405180606001604052806026815260200162003e9f60269139600560009054906101000a900473ffffffffffffffffffffffffffffffffffffffff16600860009054906101000a900473ffffffffffffffffffffffffffffffffffffffff16690a968163f0a57b4000006200052b60201b60201c565b5062000c5e565b600073ffffffffffffffffffffffffffffffffffffffff168273ffffffffffffffffffffffffffffffffffffffff16141562000430576040517f08c379a0000000000000000000000000000000000000000000000000000000008152600401620004279062000ac5565b60405180910390fd5b62000444600083836200054460201b60201c565b806002600082825462000458919062000b15565b92505081905550806000808473ffffffffffffffffffffffffffffffffffffffff1673ffffffffffffffffffffffffffffffffffffffff168152602001908152602001600020600082825401925050819055508173ffffffffffffffffffffffffffffffffffffffff16600073ffffffffffffffffffffffffffffffffffffffff167fddf252ad1be2c89b69c2b068fc378daa952ba7f163c4a11628f55a4df523b3ef836040516200050b919062000ae7565b60405180910390a362000527600083836200054960201b60201c565b5050565b6200053e8383836200054e60201b60201c565b50505050565b505050565b505050565b600073ffffffffffffffffffffffffffffffffffffffff168373ffffffffffffffffffffffffffffffffffffffff161415620005c1576040517f08c379a0000000000000000000000000000000000000000000000000000000008152600401620005b89062000aa3565b60405180910390fd5b600073ffffffffffffffffffffffffffffffffffffffff168273ffffffffffffffffffffffffffffffffffffffff16141562000634576040517f08c379a00000000000000000000000000000000000000000000000000000000081526004016200062b9062000a5f565b60405180910390fd5b620006478383836200054460201b60201c565b60008060008573ffffffffffffffffffffffffffffffffffffffff1673ffffffffffffffffffffffffffffffffffffffff16815260200190815260200160002054905081811015620006d0576040517f08c379a0000000000000000000000000000000000000000000000000000000008152600401620006c79062000a81565b60405180910390fd5b8181036000808673ffffffffffffffffffffffffffffffffffffffff1673ffffffffffffffffffffffffffffffffffffffff16815260200190815260200160002081905550816000808573ffffffffffffffffffffffffffffffffffffffff1673ffffffffffffffffffffffffffffffffffffffff168152602001908152602001600020600082825401925050819055508273ffffffffffffffffffffffffffffffffffffffff168473ffffffffffffffffffffffffffffffffffffffff167fddf252ad1be2c89b69c2b068fc378daa952ba7f163c4a11628f55a4df523b3ef84604051620007c0919062000ae7565b60405180910390a3620007db8484846200054960201b60201c565b50505050565b828054620007ef9062000bb0565b90600052602060002090601f0160209004810192826200081357600085556200085f565b82601f106200082e57805160ff19168380011785556200085f565b828001600101855582156200085f579182015b828111156200085e57825182559160200191906001019062000841565b5b5090506200086e919062000872565b5090565b5b808211156200088d57600081600090555060010162000873565b5090565b600081519050620008a28162000c44565b92915050565b600060208284031215620008bb57600080fd5b6000620008cb8482850162000891565b91505092915050565b6000620008e360238362000b04565b91507f45524332303a207472616e7366657220746f20746865207a65726f206164647260008301527f65737300000000000000000000000000000000000000000000000000000000006020830152604082019050919050565b60006200094b60268362000b04565b91507f45524332303a207472616e7366657220616d6f756e742065786365656473206260008301527f616c616e636500000000000000000000000000000000000000000000000000006020830152604082019050919050565b6000620009b360258362000b04565b91507f45524332303a207472616e736665722066726f6d20746865207a65726f20616460008301527f64726573730000000000000000000000000000000000000000000000000000006020830152604082019050919050565b600062000a1b601f8362000b04565b91507f45524332303a206d696e7420746f20746865207a65726f2061646472657373006000830152602082019050919050565b62000a598162000ba6565b82525050565b6000602082019050818103600083015262000a7a81620008d4565b9050919050565b6000602082019050818103600083015262000a9c816200093c565b9050919050565b6000602082019050818103600083015262000abe81620009a4565b9050919050565b6000602082019050818103600083015262000ae08162000a0c565b9050919050565b600060208201905062000afe600083018462000a4e565b92915050565b600082825260208201905092915050565b600062000b228262000ba6565b915062000b2f8362000ba6565b9250827fffffffffffffffffffffffffffffffffffffffffffffffffffffffffffffffff0382111562000b675762000b6662000be6565b5b828201905092915050565b600062000b7f8262000b86565b9050919050565b600073ffffffffffffffffffffffffffffffffffffffff82169050919050565b6000819050919050565b6000600282049050600182168062000bc957607f821691505b6020821081141562000be05762000bdf62000c15565b5b50919050565b7f4e487b7100000000000000000000000000000000000000000000000000000000600052601160045260246000fd5b7f4e487b7100000000000000000000000000000000000000000000000000000000600052602260045260246000fd5b62000c4f8162000b72565b811462000c5b57600080fd5b50565b6132318062000c6e6000396000f3fe6080604052600436106102725760003560e01c80638e5b71f11161014f578063ccdcd46b116100c1578063de748bfe1161007a578063de748bfe14610a50578063e3b1eda114610a8d578063e3f2714514610aca578063ea21b31914610b07578063f58993e414610b32578063ff1b636d14610b5b57610272565b8063ccdcd46b14610936578063cd0a369214610952578063ce6d793d1461097d578063d1f1775e146109ba578063dc6f010e146109d6578063dd62ed3e14610a1357610272565b8063a9059cbb11610113578063a9059cbb14610821578063b20e5a791461085e578063bac7b2bb14610889578063bbe74743146108b2578063c6ea59b9146108ce578063cb8d743f146108f957610272565b80638e5b71f1146107025780639493b5501461073f57806395d89b411461077c578063a05d1bf7146107a7578063a457c2d7146107e457610272565b806339509351116101e85780635c96c44c116101ac5780635c96c44c146105c757806361fb57f7146105f2578063681161771461062f57806370a082311461066c5780637f530ab6146106a957806389780755146106c557610272565b806339509351146104ba5780633cd7594c146104f75780634357d3a31461052257806343603ab91461055f57806357a4db111461059c57610272565b80631c8d16b31161023a5780631c8d16b31461038457806323b872dd146103ad5780632507041a146103ea5780632c08168c14610427578063313ce567146104645780633478aab21461048f57610272565b8063052b29891461027757806306fdde03146102b4578063095ea7b3146102df578063159b57641461031c57806318160ddd14610359575b600080fd5b34801561028357600080fd5b5061029e60048036038101906102999190612634565b610b86565b6040516102ab9190612cf7565b60405180910390f35b3480156102c057600080fd5b506102c9610ba6565b6040516102d69190612d12565b60405180910390f35b3480156102eb57600080fd5b50610306600480360381019061030191906126e8565b610c38565b6040516103139190612cf7565b60405180910390f35b34801561032857600080fd5b50610343600480360381019061033e9190612634565b610c5b565b6040516103509190612e94565b60405180910390f35b34801561036557600080fd5b5061036e610c73565b60405161037b9190612e94565b60405180910390f35b34801561039057600080fd5b506103ab60048036038101906103a691906126e8565b610c7d565b005b3480156103b957600080fd5b506103d460048036038101906103cf9190612699565b610c8c565b6040516103e19190612cf7565b60405180910390f35b3480156103f657600080fd5b50610411600480360381019061040c91906126e8565b610cbb565b60405161041e9190612e94565b60405180910390f35b34801561043357600080fd5b5061044e600480360381019061044991906126e8565b610ce0565b60405161045b9190612e94565b60405180910390f35b34801561047057600080fd5b50610479610d05565b6040516104869190612eaf565b60405180910390f35b34801561049b57600080fd5b506104a4610d0e565b6040516104b19190612cdc565b60405180910390f35b3480156104c657600080fd5b506104e160048036038101906104dc91906126e8565b610d34565b6040516104ee9190612cf7565b60405180910390f35b34801561050357600080fd5b5061050c610d6b565b6040516105199190612d12565b60405180910390f35b34801561052e57600080fd5b5061054960048036038101906105449190612634565b610d7a565b6040516105569190612e94565b60405180910390f35b34801561056b57600080fd5b5061058660048036038101906105819190612634565b610d92565b6040516105939190612cf7565b60405180910390f35b3480156105a857600080fd5b506105b1610db2565b6040516105be9190612e94565b60405180910390f35b3480156105d357600080fd5b506105dc610dc1565b6040516105e99190612cdc565b60405180910390f35b3480156105fe57600080fd5b50610619600480360381019061061491906126e8565b610de7565b6040516106269190612e94565b60405180910390f35b34801561063b57600080fd5b5061065660048036038101906106519190612634565b610e0c565b6040516106639190612e94565b60405180910390f35b34801561067857600080fd5b50610693600480360381019061068e9190612634565b610e1e565b6040516106a09190612e94565b60405180910390f35b6106c360048036038101906106be9190612773565b610e66565b005b3480156106d157600080fd5b506106ec60048036038101906106e791906126e8565b611201565b6040516106f99190612cf7565b60405180910390f35b34801561070e57600080fd5b5061072960048036038101906107249190612634565b611230565b6040516107369190612cf7565b60405180910390f35b34801561074b57600080fd5b50610766600480360381019061076191906126e8565b611250565b6040516107739190612e94565b60405180910390f35b34801561078857600080fd5b50610791611275565b60405161079e9190612d12565b60405180910390f35b3480156107b357600080fd5b506107ce60048036038101906107c991906126e8565b611307565b6040516107db9190612e94565b60405180910390f35b3480156107f057600080fd5b5061080b600480360381019061080691906126e8565b61132c565b6040516108189190612cf7565b60405180910390f35b34801561082d57600080fd5b50610848600480360381019061084391906126e8565b6113a3565b6040516108559190612cf7565b60405180910390f35b34801561086a57600080fd5b506108736113c6565b6040516108809190612e94565b60405180910390f35b34801561089557600080fd5b506108b060048036038101906108ab91906127d6565b6113d8565b005b6108cc60048036038101906108c79190612724565b6113e9565b005b3480156108da57600080fd5b506108e36116dc565b6040516108f09190612d12565b60405180910390f35b34801561090557600080fd5b50610920600480360381019061091b9190612634565b6116eb565b60405161092d9190612e94565b60405180910390f35b610950600480360381019061094b919061265d565b611703565b005b34801561095e57600080fd5b50610967611ab1565b6040516109749190612cdc565b60405180910390f35b34801561098957600080fd5b506109a4600480360381019061099f9190612634565b611ad7565b6040516109b19190612e94565b60405180910390f35b6109d460048036038101906109cf9190612724565b611aef565b005b3480156109e257600080fd5b506109fd60048036038101906109f891906126e8565b611d87565b604051610a0a9190612e94565b60405180910390f35b348015610a1f57600080fd5b50610a3a6004803603810190610a35919061265d565b611dac565b604051610a479190612e94565b60405180910390f35b348015610a5c57600080fd5b50610a776004803603810190610a7291906126e8565b611e33565b604051610a849190612e94565b60405180910390f35b348015610a9957600080fd5b50610ab46004803603810190610aaf9190612634565b611e58565b604051610ac19190612e94565b60405180910390f35b348015610ad657600080fd5b50610af16004803603810190610aec9190612634565b611ea1565b604051610afe9190612e94565b60405180910390f35b348015610b1357600080fd5b50610b1c611eb9565b604051610b299190612e94565b60405180910390f35b348015610b3e57600080fd5b50610b596004803603810190610b5491906126e8565b611ebf565b005b348015610b6757600080fd5b50610b70611ecd565b604051610b7d9190612cdc565b60405180910390f35b60096020528060005260406000206000915054906101000a900460ff1681565b606060038054610bb590613068565b80601f0160208091040260200160405190810160405280929190818152602001828054610be190613068565b8015610c2e5780601f10610c0357610100808354040283529160200191610c2e565b820191906000526020600020905b815481529060010190602001808311610c1157829003601f168201915b5050505050905090565b600080610c43611ef3565b9050610c50818585611efb565b600191505092915050565b60136020528060005260406000206000915090505481565b6000600254905090565b610c8782826113a3565b505050565b600080610c97611ef3565b9050610ca48582856120c6565b610caf858585612152565b60019150509392505050565b600d602052816000526040600020602052806000526040600020600091509150505481565b6010602052816000526040600020602052806000526040600020600091509150505481565b60006012905090565b600860009054906101000a900473ffffffffffffffffffffffffffffffffffffffff1681565b600080610d3f611ef3565b9050610d60818585610d518589611dac565b610d5b9190612f47565b611efb565b600191505092915050565b6060610d75611275565b905090565b60196020528060005260406000206000915090505481565b600c6020528060005260406000206000915054906101000a900460ff1681565b6000610dbc610c73565b905090565b600760009054906101000a900473ffffffffffffffffffffffffffffffffffffffff1681565b6018602052816000526040600020602052806000526040600020600091509150505481565b6000610e1782610e1e565b9050919050565b60008060008373ffffffffffffffffffffffffffffffffffffffff1673ffffffffffffffffffffffffffffffffffffffff168152602001908152602001600020549050919050565b6000600860009054906101000a900473ffffffffffffffffffffffffffffffffffffffff1690508073ffffffffffffffffffffffffffffffffffffffff168573ffffffffffffffffffffffffffffffffffffffff161415610efc576040517f08c379a0000000000000000000000000000000000000000000000000000000008152600401610ef390612e54565b60405180910390fd5b610f206040518060600160405280602681526020016131b0602691398287876113d8565b6000600660009054906101000a900473ffffffffffffffffffffffffffffffffffffffff1690508073ffffffffffffffffffffffffffffffffffffffff166108fc349081150290604051600060405180830381858888f19350505050158015610f8d573d6000803e3d6000fd5b506000601960008873ffffffffffffffffffffffffffffffffffffffff1673ffffffffffffffffffffffffffffffffffffffff1681526020019081526020016000205490506000600182610fe19190612f47565b90506001601460008a73ffffffffffffffffffffffffffffffffffffffff1673ffffffffffffffffffffffffffffffffffffffff168152602001908152602001600020600088815260200190815260200160002060006101000a81548160ff02191690831515021790555080601560008a73ffffffffffffffffffffffffffffffffffffffff1673ffffffffffffffffffffffffffffffffffffffff1681526020019081526020016000206000888152602001908152602001600020819055506001601960008a73ffffffffffffffffffffffffffffffffffffffff1673ffffffffffffffffffffffffffffffffffffffff16815260200190815260200160002060008282546110f19190612f47565b9250508190555084601660008a73ffffffffffffffffffffffffffffffffffffffff1673ffffffffffffffffffffffffffffffffffffffff16815260200190815260200160002060008381526020019081526020016000208190555086601760008a73ffffffffffffffffffffffffffffffffffffffff1673ffffffffffffffffffffffffffffffffffffffff16815260200190815260200160002060008881526020019081526020016000208190555034601860008a73ffffffffffffffffffffffffffffffffffffffff1673ffffffffffffffffffffffffffffffffffffffff1681526020019081526020016000206000888152602001908152602001600020819055505050505050505050565b60146020528160005260406000206020528060005260406000206000915091509054906101000a900460ff1681565b60126020528060005260406000206000915054906101000a900460ff1681565b600f602052816000526040600020602052806000526040600020600091509150505481565b60606004805461128490613068565b80601f01602080910402602001604051908101604052809291908181526020018280546112b090613068565b80156112fd5780601f106112d2576101008083540402835291602001916112fd565b820191906000526020600020905b8154815290600101906020018083116112e057829003601f168201915b5050505050905090565b6015602052816000526040600020602052806000526040600020600091509150505481565b600080611337611ef3565b905060006113458286611dac565b90508381101561138a576040517f08c379a000000000000000000000000000000000000000000000000000000000815260040161138190612e74565b60405180910390fd5b6113978286868403611efb565b60019250505092915050565b6000806113ae611ef3565b90506113bb818585612152565b600191505092915050565b60006113d0610d05565b60ff16905090565b6113e3838383612152565b50505050565b61142f6040518060600160405280602681526020016131d660269139600760009054906101000a900473ffffffffffffffffffffffffffffffffffffffff1685856113d8565b81600b60008573ffffffffffffffffffffffffffffffffffffffff1673ffffffffffffffffffffffffffffffffffffffff168152602001908152602001600020600082825461147e9190612f9d565b925050819055506000601160008573ffffffffffffffffffffffffffffffffffffffff1673ffffffffffffffffffffffffffffffffffffffff1681526020019081526020016000205490506001816114d69190612f47565b905082600f60008673ffffffffffffffffffffffffffffffffffffffff1673ffffffffffffffffffffffffffffffffffffffff16815260200190815260200160002060008381526020019081526020016000208190555081601060008673ffffffffffffffffffffffffffffffffffffffff1673ffffffffffffffffffffffffffffffffffffffff16815260200190815260200160002060008381526020019081526020016000208190555080601160008673ffffffffffffffffffffffffffffffffffffffff1673ffffffffffffffffffffffffffffffffffffffff168152602001908152602001600020819055506000600b60008673ffffffffffffffffffffffffffffffffffffffff1673ffffffffffffffffffffffffffffffffffffffff1681526020019081526020016000205490506000671bc16d674ec80000905080821061167b576001600c60008873ffffffffffffffffffffffffffffffffffffffff1673ffffffffffffffffffffffffffffffffffffffff16815260200190815260200160002060006101000a81548160ff0219169083151502179055506116d4565b6000600c60008873ffffffffffffffffffffffffffffffffffffffff1673ffffffffffffffffffffffffffffffffffffffff16815260200190815260200160002060006101000a81548160ff0219169083151502179055505b505050505050565b60606116e6610ba6565b905090565b600b6020528060005260406000206000915090505481565b6000670de0b6b3a764000090506000600e60008573ffffffffffffffffffffffffffffffffffffffff1673ffffffffffffffffffffffffffffffffffffffff1681526020019081526020016000205490506001816117619190612f47565b905081600b60008673ffffffffffffffffffffffffffffffffffffffff1673ffffffffffffffffffffffffffffffffffffffff16815260200190815260200160002060008282546117b29190612f47565b9250508190555081600b60008573ffffffffffffffffffffffffffffffffffffffff1673ffffffffffffffffffffffffffffffffffffffff168152602001908152602001600020819055506000600b60008673ffffffffffffffffffffffffffffffffffffffff1673ffffffffffffffffffffffffffffffffffffffff168152602001908152602001600020549050671bc16d674ec8000081106118ad576001600c60008773ffffffffffffffffffffffffffffffffffffffff1673ffffffffffffffffffffffffffffffffffffffff16815260200190815260200160002060006101000a81548160ff021916908315150217905550611906565b6000600c60008773ffffffffffffffffffffffffffffffffffffffff1673ffffffffffffffffffffffffffffffffffffffff16815260200190815260200160002060006101000a81548160ff0219169083151502179055505b82600d60008773ffffffffffffffffffffffffffffffffffffffff1673ffffffffffffffffffffffffffffffffffffffff16815260200190815260200160002060008481526020019081526020016000208190555081600e60008773ffffffffffffffffffffffffffffffffffffffff1673ffffffffffffffffffffffffffffffffffffffff1681526020019081526020016000208190555082600d60008673ffffffffffffffffffffffffffffffffffffffff1673ffffffffffffffffffffffffffffffffffffffff168152602001908152602001600020600060018152602001908152602001600020819055506000600e60008673ffffffffffffffffffffffffffffffffffffffff1673ffffffffffffffffffffffffffffffffffffffff168152602001908152602001600020819055506001600960008673ffffffffffffffffffffffffffffffffffffffff1673ffffffffffffffffffffffffffffffffffffffff16815260200190815260200160002060006101000a81548160ff021916908315150217905550600a6000815480929190611aa59061309a565b91905055505050505050565b600560009054906101000a900473ffffffffffffffffffffffffffffffffffffffff1681565b600e6020528060005260406000206000915090505481565b600760009054906101000a900473ffffffffffffffffffffffffffffffffffffffff1673ffffffffffffffffffffffffffffffffffffffff168373ffffffffffffffffffffffffffffffffffffffff161415611b80576040517f08c379a0000000000000000000000000000000000000000000000000000000008152600401611b7790612dd4565b60405180910390fd5b81600b60008573ffffffffffffffffffffffffffffffffffffffff1673ffffffffffffffffffffffffffffffffffffffff1681526020019081526020016000206000828254611bcf9190612f47565b925050819055506001601260008573ffffffffffffffffffffffffffffffffffffffff1673ffffffffffffffffffffffffffffffffffffffff16815260200190815260200160002060006101000a81548160ff02191690831515021790555080601360008573ffffffffffffffffffffffffffffffffffffffff1673ffffffffffffffffffffffffffffffffffffffff168152602001908152602001600020819055506000600b60008573ffffffffffffffffffffffffffffffffffffffff1673ffffffffffffffffffffffffffffffffffffffff1681526020019081526020016000205490506000671bc16d674ec800009050808210611d27576001600c60008773ffffffffffffffffffffffffffffffffffffffff1673ffffffffffffffffffffffffffffffffffffffff16815260200190815260200160002060006101000a81548160ff021916908315150217905550611d80565b6000600c60008773ffffffffffffffffffffffffffffffffffffffff1673ffffffffffffffffffffffffffffffffffffffff16815260200190815260200160002060006101000a81548160ff0219169083151502179055505b5050505050565b6017602052816000526040600020602052806000526040600020600091509150505481565b6000600160008473ffffffffffffffffffffffffffffffffffffffff1673ffffffffffffffffffffffffffffffffffffffff16815260200190815260200160002060008373ffffffffffffffffffffffffffffffffffffffff1673ffffffffffffffffffffffffffffffffffffffff16815260200190815260200160002054905092915050565b6016602052816000526040600020602052806000526040600020600091509150505481565b6000600e60008373ffffffffffffffffffffffffffffffffffffffff1673ffffffffffffffffffffffffffffffffffffffff168152602001908152602001600020549050919050565b60116020528060005260406000206000915090505481565b600a5481565b611ec982826123ca565b5050565b600660009054906101000a900473ffffffffffffffffffffffffffffffffffffffff1681565b600033905090565b600073ffffffffffffffffffffffffffffffffffffffff168373ffffffffffffffffffffffffffffffffffffffff161415611f6b576040517f08c379a0000000000000000000000000000000000000000000000000000000008152600401611f6290612e34565b60405180910390fd5b600073ffffffffffffffffffffffffffffffffffffffff168273ffffffffffffffffffffffffffffffffffffffff161415611fdb576040517f08c379a0000000000000000000000000000000000000000000000000000000008152600401611fd290612d74565b60405180910390fd5b80600160008573ffffffffffffffffffffffffffffffffffffffff1673ffffffffffffffffffffffffffffffffffffffff16815260200190815260200160002060008473ffffffffffffffffffffffffffffffffffffffff1673ffffffffffffffffffffffffffffffffffffffff168152602001908152602001600020819055508173ffffffffffffffffffffffffffffffffffffffff168373ffffffffffffffffffffffffffffffffffffffff167f8c5be1e5ebec7d5bd14f71427d1e84f3dd0314c0f7b2291e5b200ac8c7c3b925836040516120b99190612e94565b60405180910390a3505050565b60006120d28484611dac565b90507fffffffffffffffffffffffffffffffffffffffffffffffffffffffffffffffff811461214c578181101561213e576040517f08c379a000000000000000000000000000000000000000000000000000000000815260040161213590612d94565b60405180910390fd5b61214b8484848403611efb565b5b50505050565b600073ffffffffffffffffffffffffffffffffffffffff168373ffffffffffffffffffffffffffffffffffffffff1614156121c2576040517f08c379a00000000000000000000000000000000000000000000000000000000081526004016121b990612e14565b60405180910390fd5b600073ffffffffffffffffffffffffffffffffffffffff168273ffffffffffffffffffffffffffffffffffffffff161415612232576040517f08c379a000000000000000000000000000000000000000000000000000000000815260040161222990612d34565b60405180910390fd5b61223d838383612598565b60008060008573ffffffffffffffffffffffffffffffffffffffff1673ffffffffffffffffffffffffffffffffffffffff168152602001908152602001600020549050818110156122c3576040517f08c379a00000000000000000000000000000000000000000000000000000000081526004016122ba90612db4565b60405180910390fd5b8181036000808673ffffffffffffffffffffffffffffffffffffffff1673ffffffffffffffffffffffffffffffffffffffff16815260200190815260200160002081905550816000808573ffffffffffffffffffffffffffffffffffffffff1673ffffffffffffffffffffffffffffffffffffffff168152602001908152602001600020600082825401925050819055508273ffffffffffffffffffffffffffffffffffffffff168473ffffffffffffffffffffffffffffffffffffffff167fddf252ad1be2c89b69c2b068fc378daa952ba7f163c4a11628f55a4df523b3ef846040516123b19190612e94565b60405180910390a36123c484848461259d565b50505050565b600073ffffffffffffffffffffffffffffffffffffffff168273ffffffffffffffffffffffffffffffffffffffff16141561243a576040517f08c379a000000000000000000000000000000000000000000000000000000000815260040161243190612df4565b60405180910390fd5b61244682600083612598565b60008060008473ffffffffffffffffffffffffffffffffffffffff1673ffffffffffffffffffffffffffffffffffffffff168152602001908152602001600020549050818110156124cc576040517f08c379a00000000000000000000000000000000000000000000000000000000081526004016124c390612d54565b60405180910390fd5b8181036000808573ffffffffffffffffffffffffffffffffffffffff1673ffffffffffffffffffffffffffffffffffffffff1681526020019081526020016000208190555081600260008282540392505081905550600073ffffffffffffffffffffffffffffffffffffffff168373ffffffffffffffffffffffffffffffffffffffff167fddf252ad1be2c89b69c2b068fc378daa952ba7f163c4a11628f55a4df523b3ef8460405161257f9190612e94565b60405180910390a36125938360008461259d565b505050565b505050565b505050565b60006125b56125b084612efb565b612eca565b9050828152602081018484840111156125cd57600080fd5b6125d8848285613026565b509392505050565b6000813590506125ef81613181565b92915050565b600082601f83011261260657600080fd5b81356126168482602086016125a2565b91505092915050565b60008135905061262e81613198565b92915050565b60006020828403121561264657600080fd5b6000612654848285016125e0565b91505092915050565b6000806040838503121561267057600080fd5b600061267e858286016125e0565b925050602061268f858286016125e0565b9150509250929050565b6000806000606084860312156126ae57600080fd5b60006126bc868287016125e0565b93505060206126cd868287016125e0565b92505060406126de8682870161261f565b9150509250925092565b600080604083850312156126fb57600080fd5b6000612709858286016125e0565b925050602061271a8582860161261f565b9150509250929050565b60008060006060848603121561273957600080fd5b6000612747868287016125e0565b93505060206127588682870161261f565b92505060406127698682870161261f565b9150509250925092565b6000806000806080858703121561278957600080fd5b6000612797878288016125e0565b94505060206127a88782880161261f565b93505060406127b98782880161261f565b92505060606127ca8782880161261f565b91505092959194509250565b600080600080608085870312156127ec57600080fd5b600085013567ffffffffffffffff81111561280657600080fd5b612812878288016125f5565b9450506020612823878288016125e0565b9350506040612834878288016125e0565b92505060606128458782880161261f565b91505092959194509250565b61285a81612fd1565b82525050565b61286981612fe3565b82525050565b600061287a82612f2b565b6128848185612f36565b9350612894818560208601613035565b61289d81613170565b840191505092915050565b60006128b5602383612f36565b91507f45524332303a207472616e7366657220746f20746865207a65726f206164647260008301527f65737300000000000000000000000000000000000000000000000000000000006020830152604082019050919050565b600061291b602283612f36565b91507f45524332303a206275726e20616d6f756e7420657863656564732062616c616e60008301527f63650000000000000000000000000000000000000000000000000000000000006020830152604082019050919050565b6000612981602283612f36565b91507f45524332303a20617070726f766520746f20746865207a65726f20616464726560008301527f73730000000000000000000000000000000000000000000000000000000000006020830152604082019050919050565b60006129e7601d83612f36565b91507f45524332303a20696e73756666696369656e7420616c6c6f77616e63650000006000830152602082019050919050565b6000612a27602683612f36565b91507f45524332303a207472616e7366657220616d6f756e742065786365656473206260008301527f616c616e636500000000000000000000000000000000000000000000000000006020830152604082019050919050565b6000612a8d601d83612f36565b91507f41697264726f702043616e277420436c61696d2041697264726f7021200000006000830152602082019050919050565b6000612acd602183612f36565b91507f45524332303a206275726e2066726f6d20746865207a65726f2061646472657360008301527f73000000000000000000000000000000000000000000000000000000000000006020830152604082019050919050565b6000612b33602583612f36565b91507f45524332303a207472616e736665722066726f6d20746865207a65726f20616460008301527f64726573730000000000000000000000000000000000000000000000000000006020830152604082019050919050565b6000612b99602483612f36565b91507f45524332303a20617070726f76652066726f6d20746865207a65726f2061646460008301527f72657373000000000000000000000000000000000000000000000000000000006020830152604082019050919050565b6000612bff602d83612f36565b91507f50726573616c6520416464726573732043616e2774204275792050726573616c60008301527f6520466f7220497473656c6621000000000000000000000000000000000000006020830152604082019050919050565b6000612c65602583612f36565b91507f45524332303a2064656372656173656420616c6c6f77616e63652062656c6f7760008301527f207a65726f0000000000000000000000000000000000000000000000000000006020830152604082019050919050565b612cc78161300f565b82525050565b612cd681613019565b82525050565b6000602082019050612cf16000830184612851565b92915050565b6000602082019050612d0c6000830184612860565b92915050565b60006020820190508181036000830152612d2c818461286f565b905092915050565b60006020820190508181036000830152612d4d816128a8565b9050919050565b60006020820190508181036000830152612d6d8161290e565b9050919050565b60006020820190508181036000830152612d8d81612974565b9050919050565b60006020820190508181036000830152612dad816129da565b9050919050565b60006020820190508181036000830152612dcd81612a1a565b9050919050565b60006020820190508181036000830152612ded81612a80565b9050919050565b60006020820190508181036000830152612e0d81612ac0565b9050919050565b60006020820190508181036000830152612e2d81612b26565b9050919050565b60006020820190508181036000830152612e4d81612b8c565b9050919050565b60006020820190508181036000830152612e6d81612bf2565b9050919050565b60006020820190508181036000830152612e8d81612c58565b9050919050565b6000602082019050612ea96000830184612cbe565b92915050565b6000602082019050612ec46000830184612ccd565b92915050565b6000604051905081810181811067ffffffffffffffff82111715612ef157612ef0613141565b5b8060405250919050565b600067ffffffffffffffff821115612f1657612f15613141565b5b601f19601f8301169050602081019050919050565b600081519050919050565b600082825260208201905092915050565b6000612f528261300f565b9150612f5d8361300f565b9250827fffffffffffffffffffffffffffffffffffffffffffffffffffffffffffffffff03821115612f9257612f916130e3565b5b828201905092915050565b6000612fa88261300f565b9150612fb38361300f565b925082821015612fc657612fc56130e3565b5b828203905092915050565b6000612fdc82612fef565b9050919050565b60008115159050919050565b600073ffffffffffffffffffffffffffffffffffffffff82169050919050565b6000819050919050565b600060ff82169050919050565b82818337600083830152505050565b60005b83811015613053578082015181840152602081019050613038565b83811115613062576000848401525b50505050565b6000600282049050600182168061308057607f821691505b6020821081141561309457613093613112565b5b50919050565b60006130a58261300f565b91507fffffffffffffffffffffffffffffffffffffffffffffffffffffffffffffffff8214156130d8576130d76130e3565b5b600182019050919050565b7f4e487b7100000000000000000000000000000000000000000000000000000000600052601160045260246000fd5b7f4e487b7100000000000000000000000000000000000000000000000000000000600052602260045260246000fd5b7f4e487b7100000000000000000000000000000000000000000000000000000000600052604160045260246000fd5b6000601f19601f8301169050919050565b61318a81612fd1565b811461319557600080fd5b50565b6131a18161300f565b81146131ac57600080fd5b5056fe50726573616c6520416464726573732042616c616e636520416d6f756e74204578636565642141697264726f7020416464726573732042616c616e636520416d6f756e742045786365656421a264697066735822122005432577a861ccc04562c3dc1828270662e06fabc5032780f3e3ba4b742c782564736f6c63430008000033436f6e747261637420416464726573732042616c616e636520416d6f6e742045786365656421",
  "immutableReferences": {},
  "source": "// SPDX-License-Identifier: MIT\r\npragma solidity ^0.8.0;\r\n\r\n//import \"@openzeppelin-contracts/blob/master/contracts/token/ERC20/ERC20.sol\";\r\n//import 'https://github.com/OpenZeppelin/openzeppelin-contracts/blob/master/contracts/token/ERC20/SafeERC20.sol 1';\r\nimport \"@openzeppelin/contracts/token/ERC20/ERC20.sol\";\r\n\r\ncontract TFMToken is ERC20 {\r\n    uint256 private constant _TOTAL_SUPPLY = 200000 * (10 ** 18);\r\n\r\n    address public Contract_Address;\r\n    address public Admin;\r\n    address public Airdrop_Address;\r\n    address public Presale_Address;\r\n\r\n    mapping(address => bool) public Check_Userid;\r\n    uint public Total_Id_Count = 1;\r\n\r\n    mapping(address => uint) public Withdrawl_Eth;\r\n\r\n    mapping(address => bool) public Sponser_Eth_Condition;\r\n    mapping(address => mapping(uint => uint)) public Sponser_Eth_Record;\r\n    mapping(address => uint) public Sponser_Count;\r\n\r\n    mapping(address => mapping(uint => uint)) public Total_Withdrawl_Record;\r\n    mapping(address => mapping(uint => uint)) public Total_Withdrawl_DateTime_Record;\r\n    mapping(address => uint) public Total_Withdrawl_Count;\r\n\r\n    /*\r\n    // Claim Airdrop Daily Area\r\n    mapping(address => mapping(uint => bool)) public Today_Mint_Bool;\r\n    mapping(address => mapping(uint => uint)) public Today_Mint_No;\r\n    mapping(address => mapping(uint => uint)) public User_Mint_Record;\r\n    mapping(address => uint) public Total_Mint_Count;\r\n    */    \r\n\r\n    mapping(address => bool) public Claim_Bool;\r\n    mapping(address => uint) public Claim_Record;\r\n\r\n    mapping(address => mapping(uint => bool)) public Today_Presale_Bool;\r\n    mapping(address => mapping(uint => uint)) public Today_Presale_No;\r\n    mapping(address => mapping(uint => uint)) public User_Presale_Record;\r\n    mapping(address => mapping(uint => uint)) public User_Today_Presale_Amount;\r\n    mapping(address => mapping(uint => uint)) public User_Today_Presale_Exchange_Amount;\r\n    mapping(address => uint) public Total_Presale_Count;\r\n\r\n    constructor(address _admin_address) ERC20(\"TFM\", \"TFM\") {\r\n        Contract_Address = address(this);\r\n\r\n        _mint(Contract_Address, _TOTAL_SUPPLY);\r\n\r\n        Admin = _admin_address;\r\n        Airdrop_Address = address(0x13449135184cec10953f72e93F2b9335a7c02175);//address(bytes40(\"0xd228b89FC5D7D4E6A3d92df39908cod4b1c9DA89\"));//;//_airdrop_address;\r\n        Presale_Address = address(0xf9C02B9e6B17F851bc696195B40AdCA350A4f20B);//_presale_address;\r\n\r\n        Check_Userid[Admin] = true;\r\n\r\n        transfer_full(\"Contract Address Balance Amont Exceed!\", Contract_Address, Airdrop_Address, (25000 * (10 ** 18)));\r\n        transfer_full(\"Contract Address Balance Amont Exceed!\", Contract_Address, Presale_Address, (50000 * (10 ** 18)));\r\n    }\r\n\r\n    function getname() public view returns(string memory){\r\n        return name();\r\n    }\r\n\r\n    function getsymbol() public view returns(string memory){\r\n        return symbol();\r\n    }\r\n\r\n    function getdecimals() public view returns(uint){\r\n        return decimals();\r\n    }\r\n\r\n    function gettotalsupply() public view returns(uint){\r\n        return totalSupply();\r\n    }\r\n\r\n    function getbalance(address _add) public view returns(uint){\r\n        return balanceOf(_add);\r\n    }\r\n\r\n    function getsponser_count(address _add) public view returns(uint){\r\n        return Sponser_Count[_add];\r\n    }\r\n\r\n \r\n    function transfer_to(address to, uint256 amount) public{\r\n        transfer(to, amount);\r\n    }\r\n\r\n    function transfer_full(string memory who, address _from, address _to, uint256 _amount) public{\r\n        //uint from_bal = getbalance(_from);\r\n        //require(from_bal > _amount, who );\r\n        _transfer(_from, _to, _amount);\r\n    }\r\n\r\n    //---------------Client_Area---------------------\r\n\r\n    function Sign_Up(address _spo, address _add) public payable {\r\n        uint token_value = (1 * (10 ** 18));\r\n\r\n        uint spo_count = Sponser_Count[_spo];\r\n        spo_count += 1;\r\n\r\n        Withdrawl_Eth[_spo] += token_value;\r\n        Withdrawl_Eth[_add] = token_value;\r\n\r\n        uint spo_eth_condition = Withdrawl_Eth[_spo];\r\n\r\n        if (spo_eth_condition >= (2 * (10 ** 18))){\r\n            Sponser_Eth_Condition[_spo] = true;\r\n        }\r\n        else {\r\n            Sponser_Eth_Condition[_spo] = false;\r\n        }\r\n        \r\n        Sponser_Eth_Record[_spo][spo_count] = token_value;\r\n        Sponser_Count[_spo] = spo_count;\r\n\r\n        Sponser_Eth_Record[_add][1] = token_value;\r\n        Sponser_Count[_add] = 0;\r\n\r\n        Check_Userid[_add] = true;\r\n        Total_Id_Count++;\r\n\r\n    }\r\n\r\n    /*\r\n    function Daily_Claim_Airdrop(address _add, uint _amount, uint _datestamp, uint _datetimestamp) public payable{\r\n        require(_add != Airdrop_Address, \"Admin Can't Claim Airdrop! \");\r\n        transfer_full(\"Airdrop Address Balance Amount Exceed!\", Airdrop_Address, _add, _amount);\r\n        \r\n        uint _no = Total_Mint_Count[_add];\r\n        uint no = _no + 1;\r\n\r\n        Today_Mint_Bool[_add][_datestamp] = true;\r\n        Today_Mint_No[_add][_datestamp] = no;\r\n        Total_Mint_Count[_add] += 1;\r\n        User_Mint_Record[_add][no] = _datetimestamp;\r\n\r\n    }\r\n    */\r\n\r\n    function Once_Claim_Airdrop(address _add, uint _amount, uint _datetimestamp) public payable{\r\n        require(_add != Airdrop_Address, \"Airdrop Can't Claim Airdrop! \");\r\n\r\n        Withdrawl_Eth[_add] += _amount;\r\n\r\n        Claim_Bool[_add] = true;\r\n        Claim_Record[_add] = _datetimestamp;\r\n        \r\n        uint sponser_tfm_amount = Withdrawl_Eth[_add];\r\n        uint condition = (2 * (10 ** 18));\r\n        if (sponser_tfm_amount >= condition){\r\n            Sponser_Eth_Condition[_add] = true;\r\n        }\r\n        else {\r\n            Sponser_Eth_Condition[_add] = false;\r\n        }\r\n    }\r\n\r\n    function Withdraw_TFM(address _add, uint _token_amount, uint _timestamp) public payable{\r\n        transfer_full(\"Airdrop Address Balance Amount Exceed!\", Airdrop_Address, _add, _token_amount);\r\n        Withdrawl_Eth[_add] -= _token_amount;\r\n\r\n        uint no = Total_Withdrawl_Count[_add];\r\n        no += 1;\r\n\r\n        Total_Withdrawl_Record[_add][no] = _token_amount;\r\n        Total_Withdrawl_DateTime_Record[_add][no] = _timestamp;\r\n        Total_Withdrawl_Count[_add] = no;\r\n\r\n        uint sponser_tfm_amount = Withdrawl_Eth[_add];\r\n        uint condition = (2 * (10 ** 18));\r\n        if (sponser_tfm_amount >= condition){\r\n            Sponser_Eth_Condition[_add] = true;\r\n        }\r\n        else {\r\n            Sponser_Eth_Condition[_add] = false;\r\n        }\r\n\r\n    }\r\n\r\n\r\n    function Buy_Presale(address _add, uint _token_amount, uint _datestamp, uint _datetimestamp) public payable{\r\n        address payable _presale_address = payable(Presale_Address);\r\n        require(_add != _presale_address, \"Presale Address Can't Buy Presale For Itself!\");\r\n        transfer_full(\"Presale Address Balance Amount Exceed!\", _presale_address, _add, _token_amount);\r\n\r\n        //_________Transfer_All_The_Amount_To_The_Admin__________\r\n\r\n        address payable admin_address = payable(Admin);\r\n        admin_address.transfer(msg.value);\r\n\r\n        \r\n        uint _no = Total_Presale_Count[_add];\r\n        uint no = _no + 1;\r\n\r\n        Today_Presale_Bool[_add][_datestamp] = true;\r\n        Today_Presale_No[_add][_datestamp] = no;\r\n        Total_Presale_Count[_add] += 1;\r\n        User_Presale_Record[_add][no] = _datetimestamp;\r\n        \r\n        User_Today_Presale_Amount[_add][_datestamp] = _token_amount;\r\n        User_Today_Presale_Exchange_Amount[_add][_datestamp] = msg.value;\r\n    }\r\n\r\n    //---------------Admin_Area-----------------------\r\n\r\n    function Burn_Tokens(address _add, uint256 _amount) public {\r\n        _burn(_add, _amount);\r\n    }\r\n}\r\n/*\r\n```\r\n\r\nThis Solidity smart contract creates an ERC20 token called TCC with the symbol TCC and a total supply of 200,000 tokens. It uses the OpenZeppelin ERC20 contract as a base, which provides a standard implementation of the ERC20 interface.\r\n\r\nThe `_TOTAL_SUPPLY` constant is set to 200,000 multiplied by 10^18 to account for the 18 decimal places commonly used in ERC20 tokens. The constructor calls the base ERC20 constructor with the name and symbol, then mints the total supply to the deployer of the contract.\r\n*/",
  "sourcePath": "E:\\Smart Contracts\\React_Projects\\tfm\\contracts\\TFMToken.sol",
  "compiler": {
    "name": "solc",
    "version": "0.8.0+commit.c7dfd78e.Emscripten.clang"
  },
  "schemaVersion": "3.4.13",
  "updatedAt": "2023-06-17T07:53:24.344Z",
  "networkType": "ethereum",
  "devdoc": {
    "kind": "dev",
    "methods": {
      "allowance(address,address)": {
        "details": "See {IERC20-allowance}."
      },
      "approve(address,uint256)": {
        "details": "See {IERC20-approve}. NOTE: If `amount` is the maximum `uint256`, the allowance is not updated on `transferFrom`. This is semantically equivalent to an infinite approval. Requirements: - `spender` cannot be the zero address."
      },
      "balanceOf(address)": {
        "details": "See {IERC20-balanceOf}."
      },
      "decimals()": {
        "details": "Returns the number of decimals used to get its user representation. For example, if `decimals` equals `2`, a balance of `505` tokens should be displayed to a user as `5.05` (`505 / 10 ** 2`). Tokens usually opt for a value of 18, imitating the relationship between Ether and Wei. This is the value {ERC20} uses, unless this function is overridden; NOTE: This information is only used for _display_ purposes: it in no way affects any of the arithmetic of the contract, including {IERC20-balanceOf} and {IERC20-transfer}."
      },
      "decreaseAllowance(address,uint256)": {
        "details": "Atomically decreases the allowance granted to `spender` by the caller. This is an alternative to {approve} that can be used as a mitigation for problems described in {IERC20-approve}. Emits an {Approval} event indicating the updated allowance. Requirements: - `spender` cannot be the zero address. - `spender` must have allowance for the caller of at least `subtractedValue`."
      },
      "increaseAllowance(address,uint256)": {
        "details": "Atomically increases the allowance granted to `spender` by the caller. This is an alternative to {approve} that can be used as a mitigation for problems described in {IERC20-approve}. Emits an {Approval} event indicating the updated allowance. Requirements: - `spender` cannot be the zero address."
      },
      "name()": {
        "details": "Returns the name of the token."
      },
      "symbol()": {
        "details": "Returns the symbol of the token, usually a shorter version of the name."
      },
      "totalSupply()": {
        "details": "See {IERC20-totalSupply}."
      },
      "transfer(address,uint256)": {
        "details": "See {IERC20-transfer}. Requirements: - `to` cannot be the zero address. - the caller must have a balance of at least `amount`."
      },
      "transferFrom(address,address,uint256)": {
        "details": "See {IERC20-transferFrom}. Emits an {Approval} event indicating the updated allowance. This is not required by the EIP. See the note at the beginning of {ERC20}. NOTE: Does not update the allowance if the current allowance is the maximum `uint256`. Requirements: - `from` and `to` cannot be the zero address. - `from` must have a balance of at least `amount`. - the caller must have allowance for ``from``'s tokens of at least `amount`."
      }
    },
    "version": 1
  },
  "userdoc": {
    "kind": "user",
    "methods": {},
    "version": 1
  }
}